{"abi":[{"type":"function","name":"EVM_EXTRA_ARGS_V1_TAG","inputs":[],"outputs":[{"name":"","type":"bytes4","internalType":"bytes4"}],"stateMutability":"view"},{"type":"function","name":"EVM_EXTRA_ARGS_V2_TAG","inputs":[],"outputs":[{"name":"","type":"bytes4","internalType":"bytes4"}],"stateMutability":"view"}],"bytecode":{"object":"0x61010f61004d600b8282823980515f1a6073146041577f4e487b71000000000000000000000000000000000000000000000000000000005f525f60045260245ffd5b305f52607381538281f3fe7300000000000000000000000000000000000000003014608060405260043610603c575f3560e01c80633ab8c0d01460405780638113c57814605a575b5f5ffd5b60466074565b6040516051919060c2565b60405180910390f35b6060607f565b604051606b919060c2565b60405180910390f35b6397a657c960e01b81565b63181dcf1060e01b81565b5f7fffffffff0000000000000000000000000000000000000000000000000000000082169050919050565b60bc81608a565b82525050565b5f60208201905060d35f83018460b5565b9291505056fea2646970667358221220eb24c8389e6bb9c6287d3b58aaa0086b1423ee0f588aa15c202a74530786f25f64736f6c634300081e0033","linkReferences":{}},"methodIdentifiers":{"EVM_EXTRA_ARGS_V1_TAG()":"3ab8c0d0","EVM_EXTRA_ARGS_V2_TAG()":"8113c578"},"id":5}