{"abi":[{"type":"constructor","inputs":[{"name":"_usdc","type":"address","internalType":"address"},{"name":"_feewallet","type":"address","internalType":"address"},{"name":"_registrationFee","type":"uint256","internalType":"uint256"},{"name":"_router","type":"address","internalType":"address"},{"name":"_link","type":"address","internalType":"address"}],"stateMutability":"nonpayable"},{"type":"receive","stateMutability":"payable"},{"type":"function","name":"activateCompany","inputs":[{"name":"_companyId","type":"uint256","internalType":"uint256"}],"outputs":[],"stateMutability":"nonpayable"},{"type":"function","name":"addEmployee","inputs":[{"name":"_name","type":"string","internalType":"string"},{"name":"_wallet","type":"address","internalType":"address"},{"name":"_destinationChainSelector","type":"uint64","internalType":"uint64"},{"name":"_salary","type":"uint256","internalType":"uint256"}],"outputs":[],"stateMutability":"nonpayable"},{"type":"function","name":"adminDeactivateEmployee","inputs":[{"name":"_companyId","type":"uint256","internalType":"uint256"},{"name":"_employeeId","type":"uint256","internalType":"uint256"}],"outputs":[],"stateMutability":"nonpayable"},{"type":"function","name":"allowlistDestinationChain","inputs":[{"name":"_destinationChainSelector","type":"uint64","internalType":"uint64"},{"name":"allowed","type":"bool","internalType":"bool"}],"outputs":[],"stateMutability":"nonpayable"},{"type":"function","name":"allowlistedChains","inputs":[{"name":"","type":"uint64","internalType":"uint64"}],"outputs":[{"name":"","type":"bool","internalType":"bool"}],"stateMutability":"view"},{"type":"function","name":"checkUpkeep","inputs":[{"name":"","type":"bytes","internalType":"bytes"}],"outputs":[{"name":"upkeepNeeded","type":"bool","internalType":"bool"},{"name":"performData","type":"bytes","internalType":"bytes"}],"stateMutability":"nonpayable"},{"type":"function","name":"companies","inputs":[{"name":"","type":"uint256","internalType":"uint256"}],"outputs":[{"name":"owner","type":"address","internalType":"address"},{"name":"name","type":"string","internalType":"string"},{"name":"active","type":"bool","internalType":"bool"},{"name":"registrationDate","type":"uint256","internalType":"uint256"},{"name":"companyId","type":"uint256","internalType":"uint256"}],"stateMutability":"view"},{"type":"function","name":"companyIds","inputs":[{"name":"","type":"uint256","internalType":"uint256"}],"outputs":[{"name":"","type":"uint256","internalType":"uint256"}],"stateMutability":"view"},{"type":"function","name":"companyOfOwner","inputs":[{"name":"","type":"address","internalType":"address"}],"outputs":[{"name":"","type":"uint256","internalType":"uint256"}],"stateMutability":"view"},{"type":"function","name":"deactivateCompany","inputs":[{"name":"_companyId","type":"uint256","internalType":"uint256"}],"outputs":[],"stateMutability":"nonpayable"},{"type":"function","name":"deactivateEmployee","inputs":[{"name":"_employeeId","type":"uint256","internalType":"uint256"}],"outputs":[],"stateMutability":"nonpayable"},{"type":"function","name":"deleteCompany","inputs":[{"name":"_companyId","type":"uint256","internalType":"uint256"}],"outputs":[],"stateMutability":"nonpayable"},{"type":"function","name":"employees","inputs":[{"name":"","type":"uint256","internalType":"uint256"}],"outputs":[{"name":"companyId","type":"uint256","internalType":"uint256"},{"name":"name","type":"string","internalType":"string"},{"name":"wallet","type":"address","internalType":"address"},{"name":"destinationChainSelector","type":"uint64","internalType":"uint64"},{"name":"salary","type":"uint256","internalType":"uint256"},{"name":"nextPayDate","type":"uint256","internalType":"uint256"},{"name":"active","type":"bool","internalType":"bool"},{"name":"employeeId","type":"uint256","internalType":"uint256"}],"stateMutability":"view"},{"type":"function","name":"feeWallet","inputs":[],"outputs":[{"name":"","type":"address","internalType":"address"}],"stateMutability":"view"},{"type":"function","name":"getCompanyIds","inputs":[],"outputs":[{"name":"","type":"uint256[]","internalType":"uint256[]"}],"stateMutability":"view"},{"type":"function","name":"getEmployee","inputs":[{"name":"_employeeId","type":"uint256","internalType":"uint256"}],"outputs":[{"name":"companyId","type":"uint256","internalType":"uint256"},{"name":"name","type":"string","internalType":"string"},{"name":"wallet","type":"address","internalType":"address"},{"name":"destinationChainSelector","type":"uint64","internalType":"uint64"},{"name":"salary","type":"uint256","internalType":"uint256"},{"name":"nextPayDate","type":"uint256","internalType":"uint256"},{"name":"active","type":"bool","internalType":"bool"},{"name":"employeeId","type":"uint256","internalType":"uint256"}],"stateMutability":"view"},{"type":"function","name":"getEmployeesOfCompany","inputs":[{"name":"_companyId","type":"uint256","internalType":"uint256"}],"outputs":[{"name":"","type":"uint256[]","internalType":"uint256[]"}],"stateMutability":"view"},{"type":"function","name":"interval","inputs":[],"outputs":[{"name":"","type":"uint256","internalType":"uint256"}],"stateMutability":"view"},{"type":"function","name":"lastCheckedCompanyIndex","inputs":[],"outputs":[{"name":"","type":"uint256","internalType":"uint256"}],"stateMutability":"view"},{"type":"function","name":"lastCheckedEmployeeIndex","inputs":[],"outputs":[{"name":"","type":"uint256","internalType":"uint256"}],"stateMutability":"view"},{"type":"function","name":"nextCompanyId","inputs":[],"outputs":[{"name":"","type":"uint256","internalType":"uint256"}],"stateMutability":"view"},{"type":"function","name":"nextEmployeeId","inputs":[],"outputs":[{"name":"","type":"uint256","internalType":"uint256"}],"stateMutability":"view"},{"type":"function","name":"owner","inputs":[],"outputs":[{"name":"","type":"address","internalType":"address"}],"stateMutability":"view"},{"type":"function","name":"performUpkeep","inputs":[{"name":"performData","type":"bytes","internalType":"bytes"}],"outputs":[],"stateMutability":"nonpayable"},{"type":"function","name":"registerCompany","inputs":[{"name":"_name","type":"string","internalType":"string"}],"outputs":[],"stateMutability":"nonpayable"},{"type":"function","name":"registrationFee","inputs":[],"outputs":[{"name":"","type":"uint256","internalType":"uint256"}],"stateMutability":"view"},{"type":"function","name":"setInterval","inputs":[{"name":"_interval","type":"uint256","internalType":"uint256"}],"outputs":[],"stateMutability":"nonpayable"},{"type":"function","name":"setRegistrationFee","inputs":[{"name":"_fee","type":"uint256","internalType":"uint256"}],"outputs":[],"stateMutability":"nonpayable"},{"type":"function","name":"tokenTransferor","inputs":[],"outputs":[{"name":"","type":"address","internalType":"address"}],"stateMutability":"view"},{"type":"function","name":"transferOwnership","inputs":[{"name":"newOwner","type":"address","internalType":"address"}],"outputs":[],"stateMutability":"nonpayable"},{"type":"function","name":"transferTokensPayNative","inputs":[{"name":"_destinationChainSelector","type":"uint64","internalType":"uint64"},{"name":"_receiver","type":"address","internalType":"address"},{"name":"_token","type":"address","internalType":"address"},{"name":"_amount","type":"uint256","internalType":"uint256"}],"outputs":[{"name":"messageId","type":"bytes32","internalType":"bytes32"}],"stateMutability":"nonpayable"},{"type":"function","name":"updateEmployee","inputs":[{"name":"_employeeId","type":"uint256","internalType":"uint256"},{"name":"_name","type":"string","internalType":"string"},{"name":"_wallet","type":"address","internalType":"address"},{"name":"_destinationChainSelector","type":"uint64","internalType":"uint64"},{"name":"_salary","type":"uint256","internalType":"uint256"},{"name":"_nextPayDate","type":"uint256","internalType":"uint256"},{"name":"_active","type":"bool","internalType":"bool"}],"outputs":[],"stateMutability":"nonpayable"},{"type":"function","name":"usdc","inputs":[],"outputs":[{"name":"","type":"address","internalType":"contract IERC20"}],"stateMutability":"view"},{"type":"function","name":"withdraw","inputs":[{"name":"_beneficiary","type":"address","internalType":"address"}],"outputs":[],"stateMutability":"nonpayable"},{"type":"function","name":"withdrawToken","inputs":[{"name":"_beneficiary","type":"address","internalType":"address"},{"name":"_token","type":"address","internalType":"address"}],"outputs":[],"stateMutability":"nonpayable"},{"type":"event","name":"CompanyRegistered","inputs":[{"name":"companyId","type":"uint256","indexed":true,"internalType":"uint256"},{"name":"owner","type":"address","indexed":true,"internalType":"address"},{"name":"name","type":"string","indexed":false,"internalType":"string"}],"anonymous":false},{"type":"event","name":"EmployeeAdded","inputs":[{"name":"companyId","type":"uint256","indexed":true,"internalType":"uint256"},{"name":"employeeId","type":"uint256","indexed":true,"internalType":"uint256"},{"name":"name","type":"string","indexed":false,"internalType":"string"},{"name":"wallet","type":"address","indexed":false,"internalType":"address"},{"name":"salary","type":"uint256","indexed":false,"internalType":"uint256"},{"name":"nextPayDate","type":"uint256","indexed":false,"internalType":"uint256"}],"anonymous":false},{"type":"event","name":"EmployeeDeactivated","inputs":[{"name":"companyId","type":"uint256","indexed":true,"internalType":"uint256"},{"name":"employeeId","type":"uint256","indexed":true,"internalType":"uint256"}],"anonymous":false},{"type":"event","name":"EmployeeUpdated","inputs":[{"name":"companyId","type":"uint256","indexed":true,"internalType":"uint256"},{"name":"employeeId","type":"uint256","indexed":true,"internalType":"uint256"}],"anonymous":false},{"type":"event","name":"IntervalUpdated","inputs":[{"name":"newInterval","type":"uint256","indexed":false,"internalType":"uint256"}],"anonymous":false},{"type":"event","name":"OwnershipTransferred","inputs":[{"name":"previousOwner","type":"address","indexed":true,"internalType":"address"},{"name":"newOwner","type":"address","indexed":true,"internalType":"address"}],"anonymous":false},{"type":"event","name":"PaymentExecuted","inputs":[{"name":"companyId","type":"uint256","indexed":true,"internalType":"uint256"},{"name":"employeeId","type":"uint256","indexed":true,"internalType":"uint256"},{"name":"wallet","type":"address","indexed":true,"internalType":"address"},{"name":"amount","type":"uint256","indexed":false,"internalType":"uint256"}],"anonymous":false},{"type":"event","name":"PaymentScheduled","inputs":[{"name":"companyId","type":"uint256","indexed":true,"internalType":"uint256"},{"name":"employeeId","type":"uint256","indexed":true,"internalType":"uint256"},{"name":"wallet","type":"address","indexed":true,"internalType":"address"},{"name":"amount","type":"uint256","indexed":false,"internalType":"uint256"},{"name":"destChain","type":"uint64","indexed":false,"internalType":"uint64"}],"anonymous":false},{"type":"event","name":"RegistrationFeeUpdated","inputs":[{"name":"newFee","type":"uint256","indexed":false,"internalType":"uint256"}],"anonymous":false},{"type":"event","name":"TokensTransferred","inputs":[{"name":"messageId","type":"bytes32","indexed":true,"internalType":"bytes32"},{"name":"destinationChainSelector","type":"uint64","indexed":true,"internalType":"uint64"},{"name":"receiver","type":"address","indexed":false,"internalType":"address"},{"name":"token","type":"address","indexed":false,"internalType":"address"},{"name":"tokenAmount","type":"uint256","indexed":false,"internalType":"uint256"},{"name":"feeToken","type":"address","indexed":false,"internalType":"address"},{"name":"fees","type":"uint256","indexed":false,"internalType":"uint256"}],"anonymous":false},{"type":"error","name":"DestinationChainNotAllowlisted","inputs":[{"name":"destinationChainSelector","type":"uint64","internalType":"uint64"}]},{"type":"error","name":"FailedToWithdrawEth","inputs":[{"name":"owner","type":"address","internalType":"address"},{"name":"target","type":"address","internalType":"address"},{"name":"value","type":"uint256","internalType":"uint256"}]},{"type":"error","name":"InvalidReceiverAddress","inputs":[]},{"type":"error","name":"NotEnoughBalance","inputs":[{"name":"currentBalance","type":"uint256","internalType":"uint256"},{"name":"requiredBalance","type":"uint256","internalType":"uint256"}]},{"type":"error","name":"NothingToWithdraw","inputs":[]},{"type":"error","name":"SafeERC20FailedOperation","inputs":[{"name":"token","type":"address","internalType":"address"}]}],"bytecode":{"object":"0x60a060405260016005556001600655348015610019575f5ffd5b5060405161618c38038061618c833981810160405281019061003b9190610287565b5f73ffffffffffffffffffffffffffffffffffffffff168573ffffffffffffffffffffffffffffffffffffffff16036100a9576040517f08c379a00000000000000000000000000000000000000000000000000000000081526004016100a090610358565b60405180910390fd5b8473ffffffffffffffffffffffffffffffffffffffff1660808173ffffffffffffffffffffffffffffffffffffffff1681525050335f5f6101000a81548173ffffffffffffffffffffffffffffffffffffffff021916908373ffffffffffffffffffffffffffffffffffffffff1602179055508260028190555061012c6003819055508360015f6101000a81548173ffffffffffffffffffffffffffffffffffffffff021916908373ffffffffffffffffffffffffffffffffffffffff16021790555081600e5f6101000a81548173ffffffffffffffffffffffffffffffffffffffff021916908373ffffffffffffffffffffffffffffffffffffffff16021790555080600f5f6101000a81548173ffffffffffffffffffffffffffffffffffffffff021916908373ffffffffffffffffffffffffffffffffffffffff1602179055505050505050610376565b5f5ffd5b5f73ffffffffffffffffffffffffffffffffffffffff82169050919050565b5f610223826101fa565b9050919050565b61023381610219565b811461023d575f5ffd5b50565b5f8151905061024e8161022a565b92915050565b5f819050919050565b61026681610254565b8114610270575f5ffd5b50565b5f815190506102818161025d565b92915050565b5f5f5f5f5f60a086880312156102a05761029f6101f6565b5b5f6102ad88828901610240565b95505060206102be88828901610240565b94505060406102cf88828901610273565b93505060606102e088828901610240565b92505060806102f188828901610240565b9150509295509295909350565b5f82825260208201905092915050565b7f7a65726f207573646300000000000000000000000000000000000000000000005f82015250565b5f6103426009836102fe565b915061034d8261030e565b602082019050919050565b5f6020820190508181035f83015261036f81610336565b9050919050565b608051615db86103d45f395f818161092f01528181610ae70152818161198f01528181612ecd01528181613033015281816132d2015281816133e5015281816134d3015281816135e6015281816136d401526137e70152615db85ff3fe608060405260043610610206575f3560e01c80636619451b11610117578063bca9a5c51161009f578063d8d3c8291161006e578063d8d3c82914610786578063ea8c6bc0146107b0578063f25f4b56146107ec578063f2fde38b14610816578063f91575f01461083e5761020d565b8063bca9a5c5146106b5578063bd298fb4146106f8578063c320c72714610722578063ce63da551461074a5761020d565b80638da5cb5b116100e65780638da5cb5b146105e7578063947a36fb1461061157806396d3b83d1461063b578063a764acba14610663578063ba9b36131461068d5761020d565b80636619451b1461052e578063674bc0e4146105585780636e04ff0d146105805780638265bfbe146105bd5761020d565b8063338f488b1161019a5780634739326b116101695780634739326b146104215780634d9ae4041461046457806351419b4b1461048e57806351cff8d9146104ca578063563e44bb146104f25761020d565b8063338f488b1461037f5780633aeac4e1146103a75780633e413bee146103cf5780634585e33b146103f95761020d565b806322a90082116101d657806322a90082146102c75780632813d19d146102ef5780632b90e55c1461032f57806331ee5b39146103575761020d565b8062544194146102115780630bb106eb1461023957806314c44e09146102755780631f2c55b01461029f5761020d565b3661020d57005b5f5ffd5b34801561021c575f5ffd5b5061023760048036038101906102329190614221565b610866565b005b348015610244575f5ffd5b5061025f600480360381019061025a91906142a9565b610d57565b60405161026c91906142ee565b60405180910390f35b348015610280575f5ffd5b50610289610d74565b604051610296919061431f565b60405180910390f35b3480156102aa575f5ffd5b506102c560048036038101906102c09190614362565b610d7a565b005b3480156102d2575f5ffd5b506102ed60048036038101906102e89190614362565b610e37565b005b3480156102fa575f5ffd5b5061031560048036038101906103109190614362565b610f48565b60405161032695949392919061443c565b60405180910390f35b34801561033a575f5ffd5b50610355600480360381019061035091906144be565b61102b565b005b348015610362575f5ffd5b5061037d60048036038101906103789190614362565b611334565b005b34801561038a575f5ffd5b506103a560048036038101906103a09190614542565b611696565b005b3480156103b2575f5ffd5b506103cd60048036038101906103c89190614580565b61181b565b005b3480156103da575f5ffd5b506103e361198d565b6040516103f09190614619565b60405180910390f35b348015610404575f5ffd5b5061041f600480360381019061041a9190614687565b6119b1565b005b34801561042c575f5ffd5b5061044760048036038101906104429190614362565b611b73565b60405161045b9897969594939291906146e1565b60405180910390f35b34801561046f575f5ffd5b50610478611c7c565b6040516104859190614764565b60405180910390f35b348015610499575f5ffd5b506104b460048036038101906104af919061477d565b611ca1565b6040516104c191906147f9565b60405180910390f35b3480156104d5575f5ffd5b506104f060048036038101906104eb9190614812565b612092565b005b3480156104fd575f5ffd5b5061051860048036038101906105139190614812565b612210565b604051610525919061431f565b60405180910390f35b348015610539575f5ffd5b50610542612225565b60405161054f919061431f565b60405180910390f35b348015610563575f5ffd5b5061057e60048036038101906105799190614867565b61222b565b005b34801561058b575f5ffd5b506105a660048036038101906105a19190614687565b6123ef565b6040516105b4929190614976565b60405180910390f35b3480156105c8575f5ffd5b506105d1612609565b6040516105de919061431f565b60405180910390f35b3480156105f2575f5ffd5b506105fb61260f565b6040516106089190614764565b60405180910390f35b34801561061c575f5ffd5b50610625612633565b604051610632919061431f565b60405180910390f35b348015610646575f5ffd5b50610661600480360381019061065c91906149a4565b612639565b005b34801561066e575f5ffd5b50610677612707565b6040516106849190614a99565b60405180910390f35b348015610698575f5ffd5b506106b360048036038101906106ae9190614362565b61275d565b005b3480156106c0575f5ffd5b506106db60048036038101906106d69190614362565b612819565b6040516106ef9897969594939291906146e1565b60405180910390f35b348015610703575f5ffd5b5061070c612941565b604051610719919061431f565b60405180910390f35b34801561072d575f5ffd5b5061074860048036038101906107439190614362565b612947565b005b348015610755575f5ffd5b50610770600480360381019061076b9190614362565b612a16565b60405161077d9190614a99565b60405180910390f35b348015610791575f5ffd5b5061079a612a80565b6040516107a7919061431f565b60405180910390f35b3480156107bb575f5ffd5b506107d660048036038101906107d19190614362565b612a86565b6040516107e3919061431f565b60405180910390f35b3480156107f7575f5ffd5b50610800612aa6565b60405161080d9190614764565b60405180910390f35b348015610821575f5ffd5b5061083c60048036038101906108379190614812565b612acb565b005b348015610849575f5ffd5b50610864600480360381019061085f9190614362565b612c83565b005b5f82829050116108ab576040517f08c379a00000000000000000000000000000000000000000000000000000000081526004016108a290614b03565b60405180910390fd5b5f600b5f3373ffffffffffffffffffffffffffffffffffffffff1673ffffffffffffffffffffffffffffffffffffffff1681526020019081526020015f20541461092a576040517f08c379a000000000000000000000000000000000000000000000000000000000815260040161092190614b6b565b60405180910390fd5b6002547f000000000000000000000000000000000000000000000000000000000000000073ffffffffffffffffffffffffffffffffffffffff1663dd62ed3e33306040518363ffffffff1660e01b8152600401610988929190614b89565b602060405180830381865afa1580156109a3573d5f5f3e3d5ffd5b505050506040513d601f19601f820116820180604052508101906109c79190614bc4565b1015610a08576040517f08c379a00000000000000000000000000000000000000000000000000000000081526004016109ff90614c39565b60405180910390fd5b5f5f90505b600980549050811015610ae3573373ffffffffffffffffffffffffffffffffffffffff16600a5f60098481548110610a4857610a47614c57565b5b905f5260205f20015481526020019081526020015f205f015f9054906101000a900473ffffffffffffffffffffffffffffffffffffffff1673ffffffffffffffffffffffffffffffffffffffff1603610ad6576040517f08c379a0000000000000000000000000000000000000000000000000000000008152600401610acd90614cf4565b60405180910390fd5b8080600101915050610a0d565b505f7f000000000000000000000000000000000000000000000000000000000000000073ffffffffffffffffffffffffffffffffffffffff166323b872dd3360015f9054906101000a900473ffffffffffffffffffffffffffffffffffffffff166002546040518463ffffffff1660e01b8152600401610b6593929190614d12565b6020604051808303815f875af1158015610b81573d5f5f3e3d5ffd5b505050506040513d601f19601f82011682018060405250810190610ba59190614d5b565b905080610be7576040517f08c379a0000000000000000000000000000000000000000000000000000000008152600401610bde90614dd0565b60405180910390fd5b5f60055f815480929190610bfa90614e1b565b9190505590505f600a5f8381526020019081526020015f20905033815f015f6101000a81548173ffffffffffffffffffffffffffffffffffffffff021916908373ffffffffffffffffffffffffffffffffffffffff1602179055508484826001019182610c6892919061508d565b506001816002015f6101000a81548160ff02191690831515021790555042816003018190555081816004018190555081600b5f3373ffffffffffffffffffffffffffffffffffffffff1673ffffffffffffffffffffffffffffffffffffffff1681526020019081526020015f2081905550600982908060018154018082558091505060019003905f5260205f20015f90919091909150553373ffffffffffffffffffffffffffffffffffffffff16827fb942b64496751623fe8e67d13435346a352981ddb97189053829c967cc046df98787604051610d48929190615194565b60405180910390a35050505050565b600d602052805f5260405f205f915054906101000a900460ff1681565b60025481565b5f5f9054906101000a900473ffffffffffffffffffffffffffffffffffffffff1673ffffffffffffffffffffffffffffffffffffffff163373ffffffffffffffffffffffffffffffffffffffff1614610e08576040517f08c379a0000000000000000000000000000000000000000000000000000000008152600401610dff90615200565b60405180910390fd5b6001600a5f8381526020019081526020015f206002015f6101000a81548160ff02191690831515021790555050565b5f5f9054906101000a900473ffffffffffffffffffffffffffffffffffffffff1673ffffffffffffffffffffffffffffffffffffffff163373ffffffffffffffffffffffffffffffffffffffff1614610ec5576040517f08c379a0000000000000000000000000000000000000000000000000000000008152600401610ebc90615200565b60405180910390fd5b5f8111610f07576040517f08c379a0000000000000000000000000000000000000000000000000000000008152600401610efe90615268565b60405180910390fd5b806003819055507fc6f44473d25b86976ee7357c1339328224e349abc5486edc3007ef658a57608a81604051610f3d919061431f565b60405180910390a150565b600a602052805f5260405f205f91509050805f015f9054906101000a900473ffffffffffffffffffffffffffffffffffffffff1690806001018054610f8c90614ec6565b80601f0160208091040260200160405190810160405280929190818152602001828054610fb890614ec6565b80156110035780601f10610fda57610100808354040283529160200191611003565b820191905f5260205f20905b815481529060010190602001808311610fe657829003601f168201915b505050505090806002015f9054906101000a900460ff16908060030154908060040154905085565b5f600b5f3373ffffffffffffffffffffffffffffffffffffffff1673ffffffffffffffffffffffffffffffffffffffff1681526020019081526020015f205490505f81036110ae576040517f08c379a00000000000000000000000000000000000000000000000000000000081526004016110a5906152d0565b60405180910390fd5b5f600a5f8381526020019081526020015f209050806002015f9054906101000a900460ff16611112576040517f08c379a000000000000000000000000000000000000000000000000000000000815260040161110990615338565b60405180910390fd5b5f73ffffffffffffffffffffffffffffffffffffffff168573ffffffffffffffffffffffffffffffffffffffff1603611180576040517f08c379a0000000000000000000000000000000000000000000000000000000008152600401611177906153a0565b60405180910390fd5b5f83116111c2576040517f08c379a00000000000000000000000000000000000000000000000000000000081526004016111b990615408565b60405180910390fd5b5f60065f8154809291906111d590614e1b565b9190505590505f600c5f8381526020019081526020015f20905083815f0181905550888882600101918261120a92919061508d565b5086816002015f6101000a81548173ffffffffffffffffffffffffffffffffffffffff021916908373ffffffffffffffffffffffffffffffffffffffff160217905550858160020160146101000a81548167ffffffffffffffff021916908367ffffffffffffffff1602179055508481600301819055506003544261128f9190615426565b81600401819055506001816005015f6101000a81548160ff0219169083151502179055508181600601819055508260050182908060018154018082558091505060019003905f5260205f20015f909190919091505581847facf82f4593c61662fda8b6b2f60f53ab7d2d74a1f0f76474dbf922d047c8d35d8b8b8b8a8760040154604051611321959493929190615459565b60405180910390a3505050505050505050565b5f5f9054906101000a900473ffffffffffffffffffffffffffffffffffffffff1673ffffffffffffffffffffffffffffffffffffffff163373ffffffffffffffffffffffffffffffffffffffff16146113c2576040517f08c379a00000000000000000000000000000000000000000000000000000000081526004016113b990615200565b60405180910390fd5b5f600a5f8381526020019081526020015f209050806002015f9054906101000a900460ff16611426576040517f08c379a000000000000000000000000000000000000000000000000000000000815260040161141d90615515565b60405180910390fd5b600b5f825f015f9054906101000a900473ffffffffffffffffffffffffffffffffffffffff1673ffffffffffffffffffffffffffffffffffffffff1673ffffffffffffffffffffffffffffffffffffffff1681526020019081526020015f205f90555f5f90505b816005018054905081101561155e575f8260050182815481106114b3576114b2614c57565b5b905f5260205f2001549050600c5f8281526020019081526020015f205f5f82015f9055600182015f6114e591906140d0565b600282015f6101000a81549073ffffffffffffffffffffffffffffffffffffffff02191690556002820160146101000a81549067ffffffffffffffff0219169055600382015f9055600482015f9055600582015f6101000a81549060ff0219169055600682015f9055505050808060010191505061148d565b50600a5f8381526020019081526020015f205f5f82015f6101000a81549073ffffffffffffffffffffffffffffffffffffffff0219169055600182015f6115a591906140d0565b600282015f6101000a81549060ff0219169055600382015f9055600482015f9055600582015f6115d5919061410d565b50505f5f90505b6009805490508110156116915782600982815481106115fe576115fd614c57565b5b905f5260205f2001540361168457600960016009805490506116209190615533565b8154811061163157611630614c57565b5b905f5260205f2001546009828154811061164e5761164d614c57565b5b905f5260205f200181905550600980548061166c5761166b615566565b5b600190038181905f5260205f20015f90559055611691565b80806001019150506115dc565b505050565b5f5f9054906101000a900473ffffffffffffffffffffffffffffffffffffffff1673ffffffffffffffffffffffffffffffffffffffff163373ffffffffffffffffffffffffffffffffffffffff1614611724576040517f08c379a000000000000000000000000000000000000000000000000000000000815260040161171b90615200565b60405180910390fd5b5f600c5f8381526020019081526020015f20905082815f01541461177d576040517f08c379a0000000000000000000000000000000000000000000000000000000008152600401611774906155dd565b60405180910390fd5b806005015f9054906101000a900460ff166117cd576040517f08c379a00000000000000000000000000000000000000000000000000000000081526004016117c490615645565b60405180910390fd5b5f816005015f6101000a81548160ff02191690831515021790555081837fc3778cf500cb0777abf9fee3248b3ae357f4c269bd9d5e89b1f649b1d8d1f4ca60405160405180910390a3505050565b5f5f9054906101000a900473ffffffffffffffffffffffffffffffffffffffff1673ffffffffffffffffffffffffffffffffffffffff163373ffffffffffffffffffffffffffffffffffffffff16146118a9576040517f08c379a00000000000000000000000000000000000000000000000000000000081526004016118a090615200565b60405180910390fd5b5f8173ffffffffffffffffffffffffffffffffffffffff166370a08231306040518263ffffffff1660e01b81526004016118e39190614764565b602060405180830381865afa1580156118fe573d5f5f3e3d5ffd5b505050506040513d601f19601f820116820180604052508101906119229190614bc4565b90505f810361195d576040517fd0d04f6000000000000000000000000000000000000000000000000000000000815260040160405180910390fd5b61198883828473ffffffffffffffffffffffffffffffffffffffff16612dad9092919063ffffffff16565b505050565b7f000000000000000000000000000000000000000000000000000000000000000081565b604082829050146119f7576040517f08c379a00000000000000000000000000000000000000000000000000000000081526004016119ee906156ad565b60405180910390fd5b5f5f8383810190611a089190614542565b915091505f600a5f8481526020019081526020015f209050806002015f9054906101000a900460ff16611a70576040517f08c379a0000000000000000000000000000000000000000000000000000000008152600401611a6790615338565b60405180910390fd5b5f600c5f8481526020019081526020015f20905083815f015414611ac9576040517f08c379a0000000000000000000000000000000000000000000000000000000008152600401611ac090615715565b60405180910390fd5b806005015f9054906101000a900460ff16611b19576040517f08c379a0000000000000000000000000000000000000000000000000000000008152600401611b109061577d565b60405180910390fd5b8060040154421015611b60576040517f08c379a0000000000000000000000000000000000000000000000000000000008152600401611b57906157e5565b60405180910390fd5b611b6b848483612e00565b505050505050565b600c602052805f5260405f205f91509050805f015490806001018054611b9890614ec6565b80601f0160208091040260200160405190810160405280929190818152602001828054611bc490614ec6565b8015611c0f5780601f10611be657610100808354040283529160200191611c0f565b820191905f5260205f20905b815481529060010190602001808311611bf257829003601f168201915b505050505090806002015f9054906101000a900473ffffffffffffffffffffffffffffffffffffffff16908060020160149054906101000a900467ffffffffffffffff1690806003015490806004015490806005015f9054906101000a900460ff16908060060154905088565b60045f9054906101000a900473ffffffffffffffffffffffffffffffffffffffff1681565b5f5f5f9054906101000a900473ffffffffffffffffffffffffffffffffffffffff1673ffffffffffffffffffffffffffffffffffffffff163373ffffffffffffffffffffffffffffffffffffffff1614611d30576040517f08c379a0000000000000000000000000000000000000000000000000000000008152600401611d2790615200565b60405180910390fd5b84600d5f8267ffffffffffffffff1667ffffffffffffffff1681526020019081526020015f205f9054906101000a900460ff16611da457806040517f0a503cdb000000000000000000000000000000000000000000000000000000008152600401611d9b9190615803565b60405180910390fd5b845f73ffffffffffffffffffffffffffffffffffffffff168173ffffffffffffffffffffffffffffffffffffffff1603611e0a576040517fa05ff47e00000000000000000000000000000000000000000000000000000000815260040160405180910390fd5b5f611e178787875f613838565b90505f600e5f9054906101000a900473ffffffffffffffffffffffffffffffffffffffff1673ffffffffffffffffffffffffffffffffffffffff166320487ded8a846040518363ffffffff1660e01b8152600401611e769291906159d0565b602060405180830381865afa158015611e91573d5f5f3e3d5ffd5b505050506040513d601f19601f82011682018060405250810190611eb59190614bc4565b905047811115611efe5747816040517f8f0f4206000000000000000000000000000000000000000000000000000000008152600401611ef59291906159fe565b60405180910390fd5b8673ffffffffffffffffffffffffffffffffffffffff1663095ea7b3600e5f9054906101000a900473ffffffffffffffffffffffffffffffffffffffff16886040518363ffffffff1660e01b8152600401611f5a929190615a25565b6020604051808303815f875af1158015611f76573d5f5f3e3d5ffd5b505050506040513d601f19601f82011682018060405250810190611f9a9190614d5b565b50600e5f9054906101000a900473ffffffffffffffffffffffffffffffffffffffff1673ffffffffffffffffffffffffffffffffffffffff166396f4e9f9828b856040518463ffffffff1660e01b8152600401611ff89291906159d0565b60206040518083038185885af1158015612014573d5f5f3e3d5ffd5b50505050506040513d601f19601f820116820180604052508101906120399190615a76565b94508867ffffffffffffffff16857fc15fb748c32ba4eb29c1c311e78533f93b4425eab49ea87c6fe4279ecadca0438a8a8a5f8760405161207e959493929190615aa1565b60405180910390a350505050949350505050565b5f5f9054906101000a900473ffffffffffffffffffffffffffffffffffffffff1673ffffffffffffffffffffffffffffffffffffffff163373ffffffffffffffffffffffffffffffffffffffff1614612120576040517f08c379a000000000000000000000000000000000000000000000000000000000815260040161211790615200565b60405180910390fd5b5f4790505f810361215d576040517fd0d04f6000000000000000000000000000000000000000000000000000000000815260040160405180910390fd5b5f8273ffffffffffffffffffffffffffffffffffffffff168260405161218290615b1f565b5f6040518083038185875af1925050503d805f81146121bc576040519150601f19603f3d011682016040523d82523d5f602084013e6121c1565b606091505b505090508061220b573383836040517f9d11f56300000000000000000000000000000000000000000000000000000000815260040161220293929190614d12565b60405180910390fd5b505050565b600b602052805f5260405f205f915090505481565b60065481565b5f600b5f3373ffffffffffffffffffffffffffffffffffffffff1673ffffffffffffffffffffffffffffffffffffffff1681526020019081526020015f205490505f81036122ae576040517f08c379a00000000000000000000000000000000000000000000000000000000081526004016122a5906152d0565b60405180910390fd5b5f600c5f8b81526020019081526020015f20905081815f015414612307576040517f08c379a00000000000000000000000000000000000000000000000000000000081526004016122fe906155dd565b60405180910390fd5b888882600101918261231a92919061508d565b5086816002015f6101000a81548173ffffffffffffffffffffffffffffffffffffffff021916908373ffffffffffffffffffffffffffffffffffffffff160217905550858160020160146101000a81548167ffffffffffffffff021916908367ffffffffffffffff16021790555084816003018190555083816004018190555082816005015f6101000a81548160ff02191690831515021790555089827f4706aadbbadcdb2d905594e1b778a85633b49ce9b2b11cf7939207147f7381c360405160405180910390a350505050505050505050565b5f60605f60098054905090505f810361241c575f60405180602001604052805f8152509250925050612602565b5f5f90505b818110156125eb575f82826007546124399190615426565b6124439190615b60565b90505f6009828154811061245a57612459614c57565b5b905f5260205f20015490505f600a5f8381526020019081526020015f209050806002015f9054906101000a900460ff16612496575050506125de565b5f8160050190505f818054905090505f81036124b65750505050506125de565b5f816008546124c59190615b60565b90505f5f90505b828110156125cf575f8382846124e29190615426565b6124ec9190615b60565b90505f85828154811061250257612501614c57565b5b905f5260205f20015490505f600c5f8381526020019081526020015f209050806005015f9054906101000a900460ff1661253e575050506125c2565b806004015442106125be5760019d5088826040516020016125609291906159fe565b6040516020818303038152906040529c508b60018b61257f9190615426565b6125899190615b60565b6007819055508560018461259d9190615426565b6125a79190615b60565b600881905550505050505050505050505050612602565b5050505b80806001019150506124cc565b505f6008819055505050505050505b8080600101915050612421565b505f60405180602001604052805f81525092509250505b9250929050565b60085481565b5f5f9054906101000a900473ffffffffffffffffffffffffffffffffffffffff1681565b60035481565b5f5f9054906101000a900473ffffffffffffffffffffffffffffffffffffffff1673ffffffffffffffffffffffffffffffffffffffff163373ffffffffffffffffffffffffffffffffffffffff16146126c7576040517f08c379a00000000000000000000000000000000000000000000000000000000081526004016126be90615200565b60405180910390fd5b80600d5f8467ffffffffffffffff1667ffffffffffffffff1681526020019081526020015f205f6101000a81548160ff0219169083151502179055505050565b6060600980548060200260200160405190810160405280929190818152602001828054801561275357602002820191905f5260205f20905b81548152602001906001019080831161273f575b5050505050905090565b5f5f9054906101000a900473ffffffffffffffffffffffffffffffffffffffff1673ffffffffffffffffffffffffffffffffffffffff163373ffffffffffffffffffffffffffffffffffffffff16146127eb576040517f08c379a00000000000000000000000000000000000000000000000000000000081526004016127e290615200565b60405180910390fd5b5f600a5f8381526020019081526020015f206002015f6101000a81548160ff02191690831515021790555050565b5f60605f5f5f5f5f5f5f600c5f8b81526020019081526020015f209050805f015481600101826002015f9054906101000a900473ffffffffffffffffffffffffffffffffffffffff168360020160149054906101000a900467ffffffffffffffff1684600301548560040154866005015f9054906101000a900460ff1687600601548680546128a790614ec6565b80601f01602080910402602001604051908101604052809291908181526020018280546128d390614ec6565b801561291e5780601f106128f55761010080835404028352916020019161291e565b820191905f5260205f20905b81548152906001019060200180831161290157829003601f168201915b505050505096509850985098509850985098509850985050919395975091939597565b60075481565b5f5f9054906101000a900473ffffffffffffffffffffffffffffffffffffffff1673ffffffffffffffffffffffffffffffffffffffff163373ffffffffffffffffffffffffffffffffffffffff16146129d5576040517f08c379a00000000000000000000000000000000000000000000000000000000081526004016129cc90615200565b60405180910390fd5b806002819055507fb120d26fad0e7bd128060711a484693f1283b8143bf94bde9df9b13217aa483681604051612a0b919061431f565b60405180910390a150565b6060600a5f8381526020019081526020015f20600501805480602002602001604051908101604052809291908181526020018280548015612a7457602002820191905f5260205f20905b815481526020019060010190808311612a60575b50505050509050919050565b60055481565b60098181548110612a95575f80fd5b905f5260205f20015f915090505481565b60015f9054906101000a900473ffffffffffffffffffffffffffffffffffffffff1681565b5f5f9054906101000a900473ffffffffffffffffffffffffffffffffffffffff1673ffffffffffffffffffffffffffffffffffffffff163373ffffffffffffffffffffffffffffffffffffffff1614612b59576040517f08c379a0000000000000000000000000000000000000000000000000000000008152600401612b5090615200565b60405180910390fd5b5f73ffffffffffffffffffffffffffffffffffffffff168173ffffffffffffffffffffffffffffffffffffffff1603612bc7576040517f08c379a0000000000000000000000000000000000000000000000000000000008152600401612bbe90615bda565b60405180910390fd5b8073ffffffffffffffffffffffffffffffffffffffff165f5f9054906101000a900473ffffffffffffffffffffffffffffffffffffffff1673ffffffffffffffffffffffffffffffffffffffff167f8be0079c531659141344cd1fd0a4f28419497f9722a3daafe3b4186f6b6457e060405160405180910390a3805f5f6101000a81548173ffffffffffffffffffffffffffffffffffffffff021916908373ffffffffffffffffffffffffffffffffffffffff16021790555050565b5f600b5f3373ffffffffffffffffffffffffffffffffffffffff1673ffffffffffffffffffffffffffffffffffffffff1681526020019081526020015f205490505f8103612d06576040517f08c379a0000000000000000000000000000000000000000000000000000000008152600401612cfd906152d0565b60405180910390fd5b5f600c5f8481526020019081526020015f20905081815f015414612d5f576040517f08c379a0000000000000000000000000000000000000000000000000000000008152600401612d56906155dd565b60405180910390fd5b5f816005015f6101000a81548160ff02191690831515021790555082827fc3778cf500cb0777abf9fee3248b3ae357f4c269bd9d5e89b1f649b1d8d1f4ca60405160405180910390a3505050565b612dba838383600161396c565b612dfb57826040517f5274afe7000000000000000000000000000000000000000000000000000000008152600401612df29190614764565b60405180910390fd5b505050565b5f600a5f8581526020019081526020015f205f015f9054906101000a900473ffffffffffffffffffffffffffffffffffffffff1690505f8260020160149054906101000a900467ffffffffffffffff1667ffffffffffffffff1610158015612e8b575060038260020160149054906101000a900467ffffffffffffffff1667ffffffffffffffff1611155b612eca576040517f08c379a0000000000000000000000000000000000000000000000000000000008152600401612ec190615c42565b60405180910390fd5b5f7f000000000000000000000000000000000000000000000000000000000000000073ffffffffffffffffffffffffffffffffffffffff1663dd62ed3e83306040518363ffffffff1660e01b8152600401612f26929190614b89565b602060405180830381865afa158015612f41573d5f5f3e3d5ffd5b505050506040513d601f19601f82011682018060405250810190612f659190614bc4565b9050826003015481101561300757826002015f9054906101000a900473ffffffffffffffffffffffffffffffffffffffff1673ffffffffffffffffffffffffffffffffffffffff1684867f51d2f396e0a0bae99486944fd0308ff6cce1a18df6e8adc7d64f2c6bda19febe5f8760020160149054906101000a900467ffffffffffffffff16604051612ff8929190615c99565b60405180910390a45050613833565b5f8360020160149054906101000a900467ffffffffffffffff1667ffffffffffffffff1603613214575f7f000000000000000000000000000000000000000000000000000000000000000073ffffffffffffffffffffffffffffffffffffffff166323b872dd84866002015f9054906101000a900473ffffffffffffffffffffffffffffffffffffffff1687600301546040518463ffffffff1660e01b81526004016130b593929190614d12565b6020604051808303815f875af11580156130d1573d5f5f3e3d5ffd5b505050506040513d601f19601f820116820180604052508101906130f59190614d5b565b9050801561317957836002015f9054906101000a900473ffffffffffffffffffffffffffffffffffffffff1673ffffffffffffffffffffffffffffffffffffffff1685877f2228f8cbb17a09a722723c4196bb32d5506e02b64960ae2f03f04c43f63d5cac876003015460405161316c919061431f565b60405180910390a461320e565b836002015f9054906101000a900473ffffffffffffffffffffffffffffffffffffffff1673ffffffffffffffffffffffffffffffffffffffff1685877f51d2f396e0a0bae99486944fd0308ff6cce1a18df6e8adc7d64f2c6bda19febe5f8860020160149054906101000a900467ffffffffffffffff166040516131fe929190615c99565b60405180910390a4505050613833565b50613816565b60018360020160149054906101000a900467ffffffffffffffff1667ffffffffffffffff160361341557826002015f9054906101000a900473ffffffffffffffffffffffffffffffffffffffff1673ffffffffffffffffffffffffffffffffffffffff1684867f51d2f396e0a0bae99486944fd0308ff6cce1a18df6e8adc7d64f2c6bda19febe86600301548760020160149054906101000a900467ffffffffffffffff166040516132c7929190615cc0565b60405180910390a45f7f000000000000000000000000000000000000000000000000000000000000000073ffffffffffffffffffffffffffffffffffffffff166323b872dd843087600301546040518463ffffffff1660e01b815260040161333193929190614d12565b6020604051808303815f875af115801561334d573d5f5f3e3d5ffd5b505050506040513d601f19601f820116820180604052508101906133719190614d5b565b9050806133b3576040517f08c379a00000000000000000000000000000000000000000000000000000000081526004016133aa90615d31565b60405180910390fd5b61340e67304611b6affba76a856002015f9054906101000a900473ffffffffffffffffffffffffffffffffffffffff167f000000000000000000000000000000000000000000000000000000000000000087600301546139ce565b5050613815565b60028360020160149054906101000a900467ffffffffffffffff1667ffffffffffffffff160361361657826002015f9054906101000a900473ffffffffffffffffffffffffffffffffffffffff1673ffffffffffffffffffffffffffffffffffffffff1684867f51d2f396e0a0bae99486944fd0308ff6cce1a18df6e8adc7d64f2c6bda19febe86600301548760020160149054906101000a900467ffffffffffffffff166040516134c8929190615cc0565b60405180910390a45f7f000000000000000000000000000000000000000000000000000000000000000073ffffffffffffffffffffffffffffffffffffffff166323b872dd843087600301546040518463ffffffff1660e01b815260040161353293929190614d12565b6020604051808303815f875af115801561354e573d5f5f3e3d5ffd5b505050506040513d601f19601f820116820180604052508101906135729190614d5b565b9050806135b4576040517f08c379a00000000000000000000000000000000000000000000000000000000081526004016135ab90615d31565b60405180910390fd5b61360f67ccf0a31a221f3c9b856002015f9054906101000a900473ffffffffffffffffffffffffffffffffffffffff167f000000000000000000000000000000000000000000000000000000000000000087600301546139ce565b5050613814565b60038360020160149054906101000a900467ffffffffffffffff1667ffffffffffffffff160361381357826002015f9054906101000a900473ffffffffffffffffffffffffffffffffffffffff1673ffffffffffffffffffffffffffffffffffffffff1684867f51d2f396e0a0bae99486944fd0308ff6cce1a18df6e8adc7d64f2c6bda19febe86600301548760020160149054906101000a900467ffffffffffffffff166040516136c9929190615cc0565b60405180910390a45f7f000000000000000000000000000000000000000000000000000000000000000073ffffffffffffffffffffffffffffffffffffffff166323b872dd843087600301546040518463ffffffff1660e01b815260040161373393929190614d12565b6020604051808303815f875af115801561374f573d5f5f3e3d5ffd5b505050506040513d601f19601f820116820180604052508101906137739190614d5b565b9050806137b5576040517f08c379a00000000000000000000000000000000000000000000000000000000081526004016137ac90615d31565b60405180910390fd5b61381067de41ba4fc9d91ad9856002015f9054906101000a900473ffffffffffffffffffffffffffffffffffffffff167f000000000000000000000000000000000000000000000000000000000000000087600301546139ce565b50505b5b5b5b60035483600401546138289190615426565b836004018190555050505b505050565b61384061412b565b5f600167ffffffffffffffff81111561385c5761385b614e6c565b5b60405190808252806020026020018201604052801561389557816020015b61388261416f565b81526020019060019003908161387a5790505b50905060405180604001604052808673ffffffffffffffffffffffffffffffffffffffff16815260200185815250815f815181106138d6576138d5614c57565b5b60200260200101819052506040518060a00160405280876040516020016138fd9190614764565b604051602081830303815290604052815260200160405180602001604052805f81525081526020018281526020018473ffffffffffffffffffffffffffffffffffffffff16815260200161395e60405180602001604052805f815250614051565b815250915050949350505050565b5f5f63a9059cbb60e01b9050604051815f525f1960601c86166004528460245260205f60445f5f8b5af1925060015f511483166139c05783831516156139b4573d5f823e3d81fd5b5f873b113d1516831692505b806040525050949350505050565b5f84600d5f8267ffffffffffffffff1667ffffffffffffffff1681526020019081526020015f205f9054906101000a900460ff16613a4357806040517f0a503cdb000000000000000000000000000000000000000000000000000000008152600401613a3a9190615803565b60405180910390fd5b845f73ffffffffffffffffffffffffffffffffffffffff168173ffffffffffffffffffffffffffffffffffffffff1603613aa9576040517fa05ff47e00000000000000000000000000000000000000000000000000000000815260040160405180910390fd5b5f613ad7878787600f5f9054906101000a900473ffffffffffffffffffffffffffffffffffffffff16613838565b90505f600e5f9054906101000a900473ffffffffffffffffffffffffffffffffffffffff1673ffffffffffffffffffffffffffffffffffffffff166320487ded8a846040518363ffffffff1660e01b8152600401613b369291906159d0565b602060405180830381865afa158015613b51573d5f5f3e3d5ffd5b505050506040513d601f19601f82011682018060405250810190613b759190614bc4565b90505f600f5f9054906101000a900473ffffffffffffffffffffffffffffffffffffffff1673ffffffffffffffffffffffffffffffffffffffff168873ffffffffffffffffffffffffffffffffffffffff1603613bdf578682613bd89190615426565b9050613be3565b8190505b5f600f5f9054906101000a900473ffffffffffffffffffffffffffffffffffffffff1673ffffffffffffffffffffffffffffffffffffffff166370a08231306040518263ffffffff1660e01b8152600401613c3e9190614764565b602060405180830381865afa158015613c59573d5f5f3e3d5ffd5b505050506040513d601f19601f82011682018060405250810190613c7d9190614bc4565b905080821115613cc65780826040517f8f0f4206000000000000000000000000000000000000000000000000000000008152600401613cbd9291906159fe565b60405180910390fd5b600f5f9054906101000a900473ffffffffffffffffffffffffffffffffffffffff1673ffffffffffffffffffffffffffffffffffffffff1663095ea7b3600e5f9054906101000a900473ffffffffffffffffffffffffffffffffffffffff16846040518363ffffffff1660e01b8152600401613d43929190615a25565b6020604051808303815f875af1158015613d5f573d5f5f3e3d5ffd5b505050506040513d601f19601f82011682018060405250810190613d839190614d5b565b50600f5f9054906101000a900473ffffffffffffffffffffffffffffffffffffffff1673ffffffffffffffffffffffffffffffffffffffff168973ffffffffffffffffffffffffffffffffffffffff1614613f39575f8973ffffffffffffffffffffffffffffffffffffffff166370a08231306040518263ffffffff1660e01b8152600401613e129190614764565b602060405180830381865afa158015613e2d573d5f5f3e3d5ffd5b505050506040513d601f19601f82011682018060405250810190613e519190614bc4565b905080891115613e9a5780896040517f8f0f4206000000000000000000000000000000000000000000000000000000008152600401613e919291906159fe565b60405180910390fd5b8973ffffffffffffffffffffffffffffffffffffffff1663095ea7b3600e5f9054906101000a900473ffffffffffffffffffffffffffffffffffffffff168b6040518363ffffffff1660e01b8152600401613ef6929190615a25565b6020604051808303815f875af1158015613f12573d5f5f3e3d5ffd5b505050506040513d601f19601f82011682018060405250810190613f369190614d5b565b50505b600e5f9054906101000a900473ffffffffffffffffffffffffffffffffffffffff1673ffffffffffffffffffffffffffffffffffffffff166396f4e9f98c866040518363ffffffff1660e01b8152600401613f959291906159d0565b6020604051808303815f875af1158015613fb1573d5f5f3e3d5ffd5b505050506040513d601f19601f82011682018060405250810190613fd59190615a76565b96508a67ffffffffffffffff16877fc15fb748c32ba4eb29c1c311e78533f93b4425eab49ea87c6fe4279ecadca0438c8c8c600f5f9054906101000a900473ffffffffffffffffffffffffffffffffffffffff168960405161403b959493929190615aa1565b60405180910390a3505050505050949350505050565b60606397a657c960e01b8260405160240161406c9190615d69565b604051602081830303815290604052907bffffffffffffffffffffffffffffffffffffffffffffffffffffffff19166020820180517bffffffffffffffffffffffffffffffffffffffffffffffffffffffff83818316178352505050509050919050565b5080546140dc90614ec6565b5f825580601f106140ed575061410a565b601f0160209004905f5260205f2090810190614109919061419d565b5b50565b5080545f8255905f5260205f2090810190614128919061419d565b50565b6040518060a001604052806060815260200160608152602001606081526020015f73ffffffffffffffffffffffffffffffffffffffff168152602001606081525090565b60405180604001604052805f73ffffffffffffffffffffffffffffffffffffffff1681526020015f81525090565b5b808211156141b4575f815f90555060010161419e565b5090565b5f5ffd5b5f5ffd5b5f5ffd5b5f5ffd5b5f5ffd5b5f5f83601f8401126141e1576141e06141c0565b5b8235905067ffffffffffffffff8111156141fe576141fd6141c4565b5b60208301915083600182028301111561421a576142196141c8565b5b9250929050565b5f5f60208385031215614237576142366141b8565b5b5f83013567ffffffffffffffff811115614254576142536141bc565b5b614260858286016141cc565b92509250509250929050565b5f67ffffffffffffffff82169050919050565b6142888161426c565b8114614292575f5ffd5b50565b5f813590506142a38161427f565b92915050565b5f602082840312156142be576142bd6141b8565b5b5f6142cb84828501614295565b91505092915050565b5f8115159050919050565b6142e8816142d4565b82525050565b5f6020820190506143015f8301846142df565b92915050565b5f819050919050565b61431981614307565b82525050565b5f6020820190506143325f830184614310565b92915050565b61434181614307565b811461434b575f5ffd5b50565b5f8135905061435c81614338565b92915050565b5f60208284031215614377576143766141b8565b5b5f6143848482850161434e565b91505092915050565b5f73ffffffffffffffffffffffffffffffffffffffff82169050919050565b5f6143b68261438d565b9050919050565b6143c6816143ac565b82525050565b5f81519050919050565b5f82825260208201905092915050565b8281835e5f83830152505050565b5f601f19601f8301169050919050565b5f61440e826143cc565b61441881856143d6565b93506144288185602086016143e6565b614431816143f4565b840191505092915050565b5f60a08201905061444f5f8301886143bd565b81810360208301526144618187614404565b905061447060408301866142df565b61447d6060830185614310565b61448a6080830184614310565b9695505050505050565b61449d816143ac565b81146144a7575f5ffd5b50565b5f813590506144b881614494565b92915050565b5f5f5f5f5f608086880312156144d7576144d66141b8565b5b5f86013567ffffffffffffffff8111156144f4576144f36141bc565b5b614500888289016141cc565b95509550506020614513888289016144aa565b935050604061452488828901614295565b92505060606145358882890161434e565b9150509295509295909350565b5f5f60408385031215614558576145576141b8565b5b5f6145658582860161434e565b92505060206145768582860161434e565b9150509250929050565b5f5f60408385031215614596576145956141b8565b5b5f6145a3858286016144aa565b92505060206145b4858286016144aa565b9150509250929050565b5f819050919050565b5f6145e16145dc6145d78461438d565b6145be565b61438d565b9050919050565b5f6145f2826145c7565b9050919050565b5f614603826145e8565b9050919050565b614613816145f9565b82525050565b5f60208201905061462c5f83018461460a565b92915050565b5f5f83601f840112614647576146466141c0565b5b8235905067ffffffffffffffff811115614664576146636141c4565b5b6020830191508360018202830111156146805761467f6141c8565b5b9250929050565b5f5f6020838503121561469d5761469c6141b8565b5b5f83013567ffffffffffffffff8111156146ba576146b96141bc565b5b6146c685828601614632565b92509250509250929050565b6146db8161426c565b82525050565b5f610100820190506146f55f83018b614310565b8181036020830152614707818a614404565b905061471660408301896143bd565b61472360608301886146d2565b6147306080830187614310565b61473d60a0830186614310565b61474a60c08301856142df565b61475760e0830184614310565b9998505050505050505050565b5f6020820190506147775f8301846143bd565b92915050565b5f5f5f5f60808587031215614795576147946141b8565b5b5f6147a287828801614295565b94505060206147b3878288016144aa565b93505060406147c4878288016144aa565b92505060606147d58782880161434e565b91505092959194509250565b5f819050919050565b6147f3816147e1565b82525050565b5f60208201905061480c5f8301846147ea565b92915050565b5f60208284031215614827576148266141b8565b5b5f614834848285016144aa565b91505092915050565b614846816142d4565b8114614850575f5ffd5b50565b5f813590506148618161483d565b92915050565b5f5f5f5f5f5f5f5f60e0898b031215614883576148826141b8565b5b5f6148908b828c0161434e565b985050602089013567ffffffffffffffff8111156148b1576148b06141bc565b5b6148bd8b828c016141cc565b975097505060406148d08b828c016144aa565b95505060606148e18b828c01614295565b94505060806148f28b828c0161434e565b93505060a06149038b828c0161434e565b92505060c06149148b828c01614853565b9150509295985092959890939650565b5f81519050919050565b5f82825260208201905092915050565b5f61494882614924565b614952818561492e565b93506149628185602086016143e6565b61496b816143f4565b840191505092915050565b5f6040820190506149895f8301856142df565b818103602083015261499b818461493e565b90509392505050565b5f5f604083850312156149ba576149b96141b8565b5b5f6149c785828601614295565b92505060206149d885828601614853565b9150509250929050565b5f81519050919050565b5f82825260208201905092915050565b5f819050602082019050919050565b614a1481614307565b82525050565b5f614a258383614a0b565b60208301905092915050565b5f602082019050919050565b5f614a47826149e2565b614a5181856149ec565b9350614a5c836149fc565b805f5b83811015614a8c578151614a738882614a1a565b9750614a7e83614a31565b925050600181019050614a5f565b5085935050505092915050565b5f6020820190508181035f830152614ab18184614a3d565b905092915050565b7f6e616d65207265717569726564000000000000000000000000000000000000005f82015250565b5f614aed600d836143d6565b9150614af882614ab9565b602082019050919050565b5f6020820190508181035f830152614b1a81614ae1565b9050919050565b7f77616c6c657420616c72656164792068617320636f6d70616e790000000000005f82015250565b5f614b55601a836143d6565b9150614b6082614b21565b602082019050919050565b5f6020820190508181035f830152614b8281614b49565b9050919050565b5f604082019050614b9c5f8301856143bd565b614ba960208301846143bd565b9392505050565b5f81519050614bbe81614338565b92915050565b5f60208284031215614bd957614bd86141b8565b5b5f614be684828501614bb0565b91505092915050565b7f617070726f766520726567697374726174696f6e4665650000000000000000005f82015250565b5f614c236017836143d6565b9150614c2e82614bef565b602082019050919050565b5f6020820190508181035f830152614c5081614c17565b9050919050565b7f4e487b71000000000000000000000000000000000000000000000000000000005f52603260045260245ffd5b7f77616c6c657420616c72656164792072656769737465726564206173206f776e5f8201527f6572000000000000000000000000000000000000000000000000000000000000602082015250565b5f614cde6022836143d6565b9150614ce982614c84565b604082019050919050565b5f6020820190508181035f830152614d0b81614cd2565b9050919050565b5f606082019050614d255f8301866143bd565b614d3260208301856143bd565b614d3f6040830184614310565b949350505050565b5f81519050614d558161483d565b92915050565b5f60208284031215614d7057614d6f6141b8565b5b5f614d7d84828501614d47565b91505092915050565b7f7472616e7366657246726f6d206661696c6564000000000000000000000000005f82015250565b5f614dba6013836143d6565b9150614dc582614d86565b602082019050919050565b5f6020820190508181035f830152614de781614dae565b9050919050565b7f4e487b71000000000000000000000000000000000000000000000000000000005f52601160045260245ffd5b5f614e2582614307565b91507fffffffffffffffffffffffffffffffffffffffffffffffffffffffffffffffff8203614e5757614e56614dee565b5b600182019050919050565b5f82905092915050565b7f4e487b71000000000000000000000000000000000000000000000000000000005f52604160045260245ffd5b7f4e487b71000000000000000000000000000000000000000000000000000000005f52602260045260245ffd5b5f6002820490506001821680614edd57607f821691505b602082108103614ef057614eef614e99565b5b50919050565b5f819050815f5260205f209050919050565b5f6020601f8301049050919050565b5f82821b905092915050565b5f60088302614f527fffffffffffffffffffffffffffffffffffffffffffffffffffffffffffffffff82614f17565b614f5c8683614f17565b95508019841693508086168417925050509392505050565b5f614f8e614f89614f8484614307565b6145be565b614307565b9050919050565b5f819050919050565b614fa783614f74565b614fbb614fb382614f95565b848454614f23565b825550505050565b5f5f905090565b614fd2614fc3565b614fdd818484614f9e565b505050565b5b8181101561500057614ff55f82614fca565b600181019050614fe3565b5050565b601f8211156150455761501681614ef6565b61501f84614f08565b8101602085101561502e578190505b61504261503a85614f08565b830182614fe2565b50505b505050565b5f82821c905092915050565b5f6150655f198460080261504a565b1980831691505092915050565b5f61507d8383615056565b9150826002028217905092915050565b6150978383614e62565b67ffffffffffffffff8111156150b0576150af614e6c565b5b6150ba8254614ec6565b6150c5828285615004565b5f601f8311600181146150f2575f84156150e0578287013590505b6150ea8582615072565b865550615151565b601f19841661510086614ef6565b5f5b8281101561512757848901358255600182019150602085019450602081019050615102565b868310156151445784890135615140601f891682615056565b8355505b6001600288020188555050505b50505050505050565b828183375f83830152505050565b5f61517383856143d6565b935061518083858461515a565b615189836143f4565b840190509392505050565b5f6020820190508181035f8301526151ad818486615168565b90509392505050565b7f6e6f74206f776e657200000000000000000000000000000000000000000000005f82015250565b5f6151ea6009836143d6565b91506151f5826151b6565b602082019050919050565b5f6020820190508181035f830152615217816151de565b9050919050565b7f696e76616c696420696e74657276616c000000000000000000000000000000005f82015250565b5f6152526010836143d6565b915061525d8261521e565b602082019050919050565b5f6020820190508181035f83015261527f81615246565b9050919050565b7f6e6f7420636f6d70616e79206f776e65720000000000000000000000000000005f82015250565b5f6152ba6011836143d6565b91506152c582615286565b602082019050919050565b5f6020820190508181035f8301526152e7816152ae565b9050919050565b7f636f6d70616e7920696e616374697665000000000000000000000000000000005f82015250565b5f6153226010836143d6565b915061532d826152ee565b602082019050919050565b5f6020820190508181035f83015261534f81615316565b9050919050565b7f7a65726f2077616c6c65740000000000000000000000000000000000000000005f82015250565b5f61538a600b836143d6565b915061539582615356565b602082019050919050565b5f6020820190508181035f8301526153b78161537e565b9050919050565b7f73616c617279207a65726f0000000000000000000000000000000000000000005f82015250565b5f6153f2600b836143d6565b91506153fd826153be565b602082019050919050565b5f6020820190508181035f83015261541f816153e6565b9050919050565b5f61543082614307565b915061543b83614307565b925082820190508082111561545357615452614dee565b5b92915050565b5f6080820190508181035f830152615472818789615168565b905061548160208301866143bd565b61548e6040830185614310565b61549b6060830184614310565b9695505050505050565b7f636f6d70616e7920696e616374697665206f7220616c72656164792064656c655f8201527f7465640000000000000000000000000000000000000000000000000000000000602082015250565b5f6154ff6023836143d6565b915061550a826154a5565b604082019050919050565b5f6020820190508181035f83015261552c816154f3565b9050919050565b5f61553d82614307565b915061554883614307565b92508282039050818111156155605761555f614dee565b5b92915050565b7f4e487b71000000000000000000000000000000000000000000000000000000005f52603160045260245ffd5b7f6d69736d61746368656420636f6d70616e7900000000000000000000000000005f82015250565b5f6155c76012836143d6565b91506155d282615593565b602082019050919050565b5f6020820190508181035f8301526155f4816155bb565b9050919050565b7f616c726561647920696e616374697665000000000000000000000000000000005f82015250565b5f61562f6010836143d6565b915061563a826155fb565b602082019050919050565b5f6020820190508181035f83015261565c81615623565b9050919050565b7f62616420706572666f726d4461746100000000000000000000000000000000005f82015250565b5f615697600f836143d6565b91506156a282615663565b602082019050919050565b5f6020820190508181035f8301526156c48161568b565b9050919050565b7f6d69736d617463686564000000000000000000000000000000000000000000005f82015250565b5f6156ff600a836143d6565b915061570a826156cb565b602082019050919050565b5f6020820190508181035f83015261572c816156f3565b9050919050565b7f656d706c6f79656520696e6163746976650000000000000000000000000000005f82015250565b5f6157676011836143d6565b915061577282615733565b602082019050919050565b5f6020820190508181035f8301526157948161575b565b9050919050565b7f6e6f7420647565000000000000000000000000000000000000000000000000005f82015250565b5f6157cf6007836143d6565b91506157da8261579b565b602082019050919050565b5f6020820190508181035f8301526157fc816157c3565b9050919050565b5f6020820190506158165f8301846146d2565b92915050565b5f82825260208201905092915050565b5f61583682614924565b615840818561581c565b93506158508185602086016143e6565b615859816143f4565b840191505092915050565b5f81519050919050565b5f82825260208201905092915050565b5f819050602082019050919050565b615896816143ac565b82525050565b604082015f8201516158b05f85018261588d565b5060208201516158c36020850182614a0b565b50505050565b5f6158d4838361589c565b60408301905092915050565b5f602082019050919050565b5f6158f682615864565b615900818561586e565b935061590b8361587e565b805f5b8381101561593b57815161592288826158c9565b975061592d836158e0565b92505060018101905061590e565b5085935050505092915050565b5f60a083015f8301518482035f860152615962828261582c565b9150506020830151848203602086015261597c828261582c565b9150506040830151848203604086015261599682826158ec565b91505060608301516159ab606086018261588d565b50608083015184820360808601526159c3828261582c565b9150508091505092915050565b5f6040820190506159e35f8301856146d2565b81810360208301526159f58184615948565b90509392505050565b5f604082019050615a115f830185614310565b615a1e6020830184614310565b9392505050565b5f604082019050615a385f8301856143bd565b615a456020830184614310565b9392505050565b615a55816147e1565b8114615a5f575f5ffd5b50565b5f81519050615a7081615a4c565b92915050565b5f60208284031215615a8b57615a8a6141b8565b5b5f615a9884828501615a62565b91505092915050565b5f60a082019050615ab45f8301886143bd565b615ac160208301876143bd565b615ace6040830186614310565b615adb60608301856143bd565b615ae86080830184614310565b9695505050505050565b5f81905092915050565b50565b5f615b0a5f83615af2565b9150615b1582615afc565b5f82019050919050565b5f615b2982615aff565b9150819050919050565b7f4e487b71000000000000000000000000000000000000000000000000000000005f52601260045260245ffd5b5f615b6a82614307565b9150615b7583614307565b925082615b8557615b84615b33565b5b828206905092915050565b7f7a65726f206164647200000000000000000000000000000000000000000000005f82015250565b5f615bc46009836143d6565b9150615bcf82615b90565b602082019050919050565b5f6020820190508181035f830152615bf181615bb8565b9050919050565b7f496e76616c69642064657374696e6174696f6e436861696e53656c6563746f725f82015250565b5f615c2c6020836143d6565b9150615c3782615bf8565b602082019050919050565b5f6020820190508181035f830152615c5981615c20565b9050919050565b5f819050919050565b5f615c83615c7e615c7984615c60565b6145be565b614307565b9050919050565b615c9381615c69565b82525050565b5f604082019050615cac5f830185615c8a565b615cb960208301846146d2565b9392505050565b5f604082019050615cd35f830185614310565b615ce060208301846146d2565b9392505050565b7f5472616e7366657220746f20657363726f77206661696c6564000000000000005f82015250565b5f615d1b6019836143d6565b9150615d2682615ce7565b602082019050919050565b5f6020820190508181035f830152615d4881615d0f565b9050919050565b602082015f820151615d635f850182614a0b565b50505050565b5f602082019050615d7c5f830184615d4f565b9291505056fea2646970667358221220da31d97e582c08be13daf027d91a099b86739cbcdc4102a6d59c01db40cb39a264736f6c634300081e0033","linkReferences":{}},"methodIdentifiers":{"activateCompany(uint256)":"1f2c55b0","addEmployee(string,address,uint64,uint256)":"2b90e55c","adminDeactivateEmployee(uint256,uint256)":"338f488b","allowlistDestinationChain(uint64,bool)":"96d3b83d","allowlistedChains(uint64)":"0bb106eb","checkUpkeep(bytes)":"6e04ff0d","companies(uint256)":"2813d19d","companyIds(uint256)":"ea8c6bc0","companyOfOwner(address)":"563e44bb","deactivateCompany(uint256)":"ba9b3613","deactivateEmployee(uint256)":"f91575f0","deleteCompany(uint256)":"31ee5b39","employees(uint256)":"4739326b","feeWallet()":"f25f4b56","getCompanyIds()":"a764acba","getEmployee(uint256)":"bca9a5c5","getEmployeesOfCompany(uint256)":"ce63da55","interval()":"947a36fb","lastCheckedCompanyIndex()":"bd298fb4","lastCheckedEmployeeIndex()":"8265bfbe","nextCompanyId()":"d8d3c829","nextEmployeeId()":"6619451b","owner()":"8da5cb5b","performUpkeep(bytes)":"4585e33b","registerCompany(string)":"00544194","registrationFee()":"14c44e09","setInterval(uint256)":"22a90082","setRegistrationFee(uint256)":"c320c727","tokenTransferor()":"4d9ae404","transferOwnership(address)":"f2fde38b","transferTokensPayNative(uint64,address,address,uint256)":"51419b4b","updateEmployee(uint256,string,address,uint64,uint256,uint256,bool)":"674bc0e4","usdc()":"3e413bee","withdraw(address)":"51cff8d9","withdrawToken(address,address)":"3aeac4e1"},"id":1}