{"abi":[{"type":"constructor","inputs":[{"name":"_usdc","type":"address","internalType":"address"},{"name":"_feewallet","type":"address","internalType":"address"},{"name":"_registrationFee","type":"uint256","internalType":"uint256"}],"stateMutability":"nonpayable"},{"type":"function","name":"activateCompany","inputs":[{"name":"_companyId","type":"uint256","internalType":"uint256"}],"outputs":[],"stateMutability":"nonpayable"},{"type":"function","name":"addEmployee","inputs":[{"name":"_name","type":"string","internalType":"string"},{"name":"_wallet","type":"address","internalType":"address"},{"name":"_destinationChainSelector","type":"uint64","internalType":"uint64"},{"name":"_receiverContract","type":"address","internalType":"address"},{"name":"_salary","type":"uint256","internalType":"uint256"}],"outputs":[],"stateMutability":"nonpayable"},{"type":"function","name":"adminDeactivateEmployee","inputs":[{"name":"_companyId","type":"uint256","internalType":"uint256"},{"name":"_employeeId","type":"uint256","internalType":"uint256"}],"outputs":[],"stateMutability":"nonpayable"},{"type":"function","name":"checkUpkeep","inputs":[{"name":"","type":"bytes","internalType":"bytes"}],"outputs":[{"name":"upkeepNeeded","type":"bool","internalType":"bool"},{"name":"performData","type":"bytes","internalType":"bytes"}],"stateMutability":"nonpayable"},{"type":"function","name":"companies","inputs":[{"name":"","type":"uint256","internalType":"uint256"}],"outputs":[{"name":"owner","type":"address","internalType":"address"},{"name":"name","type":"string","internalType":"string"},{"name":"active","type":"bool","internalType":"bool"},{"name":"registrationDate","type":"uint256","internalType":"uint256"},{"name":"companyId","type":"uint256","internalType":"uint256"}],"stateMutability":"view"},{"type":"function","name":"companyIds","inputs":[{"name":"","type":"uint256","internalType":"uint256"}],"outputs":[{"name":"","type":"uint256","internalType":"uint256"}],"stateMutability":"view"},{"type":"function","name":"companyOfOwner","inputs":[{"name":"","type":"address","internalType":"address"}],"outputs":[{"name":"","type":"uint256","internalType":"uint256"}],"stateMutability":"view"},{"type":"function","name":"deactivateCompany","inputs":[{"name":"_companyId","type":"uint256","internalType":"uint256"}],"outputs":[],"stateMutability":"nonpayable"},{"type":"function","name":"deactivateEmployee","inputs":[{"name":"_employeeId","type":"uint256","internalType":"uint256"}],"outputs":[],"stateMutability":"nonpayable"},{"type":"function","name":"employees","inputs":[{"name":"","type":"uint256","internalType":"uint256"}],"outputs":[{"name":"companyId","type":"uint256","internalType":"uint256"},{"name":"name","type":"string","internalType":"string"},{"name":"wallet","type":"address","internalType":"address"},{"name":"destinationChainSelector","type":"uint64","internalType":"uint64"},{"name":"receiverContract","type":"address","internalType":"address"},{"name":"salary","type":"uint256","internalType":"uint256"},{"name":"nextPayDate","type":"uint256","internalType":"uint256"},{"name":"active","type":"bool","internalType":"bool"},{"name":"employeeId","type":"uint256","internalType":"uint256"}],"stateMutability":"view"},{"type":"function","name":"feeWallet","inputs":[],"outputs":[{"name":"","type":"address","internalType":"address"}],"stateMutability":"view"},{"type":"function","name":"getCompanyIds","inputs":[],"outputs":[{"name":"","type":"uint256[]","internalType":"uint256[]"}],"stateMutability":"view"},{"type":"function","name":"getEmployee","inputs":[{"name":"_employeeId","type":"uint256","internalType":"uint256"}],"outputs":[{"name":"companyId","type":"uint256","internalType":"uint256"},{"name":"name","type":"string","internalType":"string"},{"name":"wallet","type":"address","internalType":"address"},{"name":"destinationChainSelector","type":"uint64","internalType":"uint64"},{"name":"receiverContract","type":"address","internalType":"address"},{"name":"salary","type":"uint256","internalType":"uint256"},{"name":"nextPayDate","type":"uint256","internalType":"uint256"},{"name":"active","type":"bool","internalType":"bool"},{"name":"employeeId","type":"uint256","internalType":"uint256"}],"stateMutability":"view"},{"type":"function","name":"getEmployeesOfCompany","inputs":[{"name":"_companyId","type":"uint256","internalType":"uint256"}],"outputs":[{"name":"","type":"uint256[]","internalType":"uint256[]"}],"stateMutability":"view"},{"type":"function","name":"interval","inputs":[],"outputs":[{"name":"","type":"uint256","internalType":"uint256"}],"stateMutability":"view"},{"type":"function","name":"lastCheckedCompanyIndex","inputs":[],"outputs":[{"name":"","type":"uint256","internalType":"uint256"}],"stateMutability":"view"},{"type":"function","name":"lastCheckedEmployeeIndex","inputs":[],"outputs":[{"name":"","type":"uint256","internalType":"uint256"}],"stateMutability":"view"},{"type":"function","name":"nextCompanyId","inputs":[],"outputs":[{"name":"","type":"uint256","internalType":"uint256"}],"stateMutability":"view"},{"type":"function","name":"nextEmployeeId","inputs":[],"outputs":[{"name":"","type":"uint256","internalType":"uint256"}],"stateMutability":"view"},{"type":"function","name":"owner","inputs":[],"outputs":[{"name":"","type":"address","internalType":"address"}],"stateMutability":"view"},{"type":"function","name":"performUpkeep","inputs":[{"name":"performData","type":"bytes","internalType":"bytes"}],"outputs":[],"stateMutability":"nonpayable"},{"type":"function","name":"registerCompany","inputs":[{"name":"_name","type":"string","internalType":"string"}],"outputs":[],"stateMutability":"nonpayable"},{"type":"function","name":"registrationFee","inputs":[],"outputs":[{"name":"","type":"uint256","internalType":"uint256"}],"stateMutability":"view"},{"type":"function","name":"setInterval","inputs":[{"name":"_interval","type":"uint256","internalType":"uint256"}],"outputs":[],"stateMutability":"nonpayable"},{"type":"function","name":"setRegistrationFee","inputs":[{"name":"_fee","type":"uint256","internalType":"uint256"}],"outputs":[],"stateMutability":"nonpayable"},{"type":"function","name":"tokenTransferor","inputs":[],"outputs":[{"name":"","type":"address","internalType":"address"}],"stateMutability":"view"},{"type":"function","name":"transferOwnership","inputs":[{"name":"newOwner","type":"address","internalType":"address"}],"outputs":[],"stateMutability":"nonpayable"},{"type":"function","name":"updateEmployee","inputs":[{"name":"_employeeId","type":"uint256","internalType":"uint256"},{"name":"_name","type":"string","internalType":"string"},{"name":"_wallet","type":"address","internalType":"address"},{"name":"_destinationChainSelector","type":"uint64","internalType":"uint64"},{"name":"_receiverContract","type":"address","internalType":"address"},{"name":"_salary","type":"uint256","internalType":"uint256"},{"name":"_nextPayDate","type":"uint256","internalType":"uint256"},{"name":"_active","type":"bool","internalType":"bool"}],"outputs":[],"stateMutability":"nonpayable"},{"type":"function","name":"usdc","inputs":[],"outputs":[{"name":"","type":"address","internalType":"contract IERC20"}],"stateMutability":"view"},{"type":"event","name":"CompanyRegistered","inputs":[{"name":"companyId","type":"uint256","indexed":true,"internalType":"uint256"},{"name":"owner","type":"address","indexed":true,"internalType":"address"},{"name":"name","type":"string","indexed":false,"internalType":"string"}],"anonymous":false},{"type":"event","name":"EmployeeAdded","inputs":[{"name":"companyId","type":"uint256","indexed":true,"internalType":"uint256"},{"name":"employeeId","type":"uint256","indexed":true,"internalType":"uint256"},{"name":"name","type":"string","indexed":false,"internalType":"string"},{"name":"wallet","type":"address","indexed":false,"internalType":"address"},{"name":"salary","type":"uint256","indexed":false,"internalType":"uint256"},{"name":"nextPayDate","type":"uint256","indexed":false,"internalType":"uint256"}],"anonymous":false},{"type":"event","name":"EmployeeDeactivated","inputs":[{"name":"companyId","type":"uint256","indexed":true,"internalType":"uint256"},{"name":"employeeId","type":"uint256","indexed":true,"internalType":"uint256"}],"anonymous":false},{"type":"event","name":"EmployeeUpdated","inputs":[{"name":"companyId","type":"uint256","indexed":true,"internalType":"uint256"},{"name":"employeeId","type":"uint256","indexed":true,"internalType":"uint256"}],"anonymous":false},{"type":"event","name":"IntervalUpdated","inputs":[{"name":"newInterval","type":"uint256","indexed":false,"internalType":"uint256"}],"anonymous":false},{"type":"event","name":"OwnershipTransferred","inputs":[{"name":"previousOwner","type":"address","indexed":true,"internalType":"address"},{"name":"newOwner","type":"address","indexed":true,"internalType":"address"}],"anonymous":false},{"type":"event","name":"PaymentExecuted","inputs":[{"name":"companyId","type":"uint256","indexed":true,"internalType":"uint256"},{"name":"employeeId","type":"uint256","indexed":true,"internalType":"uint256"},{"name":"wallet","type":"address","indexed":true,"internalType":"address"},{"name":"amount","type":"uint256","indexed":false,"internalType":"uint256"}],"anonymous":false},{"type":"event","name":"PaymentScheduled","inputs":[{"name":"companyId","type":"uint256","indexed":true,"internalType":"uint256"},{"name":"employeeId","type":"uint256","indexed":true,"internalType":"uint256"},{"name":"wallet","type":"address","indexed":true,"internalType":"address"},{"name":"amount","type":"uint256","indexed":false,"internalType":"uint256"},{"name":"destChain","type":"uint64","indexed":false,"internalType":"uint64"},{"name":"receiver","type":"address","indexed":false,"internalType":"address"}],"anonymous":false},{"type":"event","name":"RegistrationFeeUpdated","inputs":[{"name":"newFee","type":"uint256","indexed":false,"internalType":"uint256"}],"anonymous":false}],"bytecode":{"object":"0x60a060405260016002556001600b55348015610019575f5ffd5b50604051613f99380380613f99833981810160405281019061003b9190610205565b5f73ffffffffffffffffffffffffffffffffffffffff168373ffffffffffffffffffffffffffffffffffffffff16036100a9576040517f08c379a00000000000000000000000000000000000000000000000000000000081526004016100a0906102af565b60405180910390fd5b8273ffffffffffffffffffffffffffffffffffffffff1660808173ffffffffffffffffffffffffffffffffffffffff1681525050335f5f6101000a81548173ffffffffffffffffffffffffffffffffffffffff021916908373ffffffffffffffffffffffffffffffffffffffff1602179055508060058190555061012c6006819055508160015f6101000a81548173ffffffffffffffffffffffffffffffffffffffff021916908373ffffffffffffffffffffffffffffffffffffffff1602179055505050506102cd565b5f5ffd5b5f73ffffffffffffffffffffffffffffffffffffffff82169050919050565b5f6101a182610178565b9050919050565b6101b181610197565b81146101bb575f5ffd5b50565b5f815190506101cc816101a8565b92915050565b5f819050919050565b6101e4816101d2565b81146101ee575f5ffd5b50565b5f815190506101ff816101db565b92915050565b5f5f5f6060848603121561021c5761021b610174565b5b5f610229868287016101be565b935050602061023a868287016101be565b925050604061024b868287016101f1565b9150509250925092565b5f82825260208201905092915050565b7f7a65726f207573646300000000000000000000000000000000000000000000005f82015250565b5f610299600983610255565b91506102a482610265565b602082019050919050565b5f6020820190508181035f8301526102c68161028d565b9050919050565b608051613c916103085f395f818161067c0152818161083401528181610ee2015281816120d90152818161226401526125230152613c915ff3fe608060405234801561000f575f5ffd5b50600436106101cc575f3560e01c80638265bfbe11610102578063c320c727116100a0578063f1fa9cb11161006f578063f1fa9cb114610541578063f25f4b561461055d578063f2fde38b1461057b578063f91575f014610597576101cc565b8063c320c727146104a7578063ce63da55146104c3578063d8d3c829146104f3578063ea8c6bc014610511576101cc565b8063a764acba116100dc578063a764acba14610417578063ba9b361314610435578063bca9a5c514610451578063bd298fb414610489576101cc565b80638265bfbe146103bd5780638da5cb5b146103db578063947a36fb146103f9576101cc565b80634585e33b1161016f578063563e44bb11610149578063563e44bb146103225780635a734cca146103525780636619451b1461036e5780636e04ff0d1461038c576101cc565b80634585e33b146102b05780634739326b146102cc5780634d9ae40414610304576101cc565b806322a90082116101ab57806322a90082146102265780632813d19d14610242578063338f488b146102765780633e413bee14610292576101cc565b8062544194146101d057806314c44e09146101ec5780631f2c55b01461020a575b5f5ffd5b6101ea60048036038101906101e59190612691565b6105b3565b005b6101f4610aa4565b60405161020191906126f4565b60405180910390f35b610224600480360381019061021f9190612737565b610aaa565b005b610240600480360381019061023b9190612737565b610b67565b005b61025c60048036038101906102579190612737565b610c78565b60405161026d95949392919061282b565b60405180910390f35b610290600480360381019061028b9190612883565b610d5b565b005b61029a610ee0565b6040516102a7919061291c565b60405180910390f35b6102ca60048036038101906102c5919061298a565b610f04565b005b6102e660048036038101906102e19190612737565b6110c6565b6040516102fb999897969594939291906129f7565b60405180910390f35b61030c6111f4565b6040516103199190612a89565b60405180910390f35b61033c60048036038101906103379190612acc565b611219565b60405161034991906126f4565b60405180910390f35b61036c60048036038101906103679190612b4b565b61122e565b005b610376611435565b60405161038391906126f4565b60405180910390f35b6103a660048036038101906103a1919061298a565b61143b565b6040516103b4929190612c6d565b60405180910390f35b6103c5611655565b6040516103d291906126f4565b60405180910390f35b6103e361165b565b6040516103f09190612a89565b60405180910390f35b61040161167f565b60405161040e91906126f4565b60405180910390f35b61041f611685565b60405161042c9190612d52565b60405180910390f35b61044f600480360381019061044a9190612737565b6116db565b005b61046b60048036038101906104669190612737565b611797565b604051610480999897969594939291906129f7565b60405180910390f35b6104916118e8565b60405161049e91906126f4565b60405180910390f35b6104c160048036038101906104bc9190612737565b6118ee565b005b6104dd60048036038101906104d89190612737565b6119bd565b6040516104ea9190612d52565b60405180910390f35b6104fb611a27565b60405161050891906126f4565b60405180910390f35b61052b60048036038101906105269190612737565b611a2d565b60405161053891906126f4565b60405180910390f35b61055b60048036038101906105569190612d72565b611a4d565b005b610565611d99565b6040516105729190612a89565b60405180910390f35b61059560048036038101906105909190612acc565b611dbe565b005b6105b160048036038101906105ac9190612737565b611f76565b005b5f82829050116105f8576040517f08c379a00000000000000000000000000000000000000000000000000000000081526004016105ef90612e52565b60405180910390fd5b5f60095f3373ffffffffffffffffffffffffffffffffffffffff1673ffffffffffffffffffffffffffffffffffffffff1681526020019081526020015f205414610677576040517f08c379a000000000000000000000000000000000000000000000000000000000815260040161066e90612eba565b60405180910390fd5b6005547f000000000000000000000000000000000000000000000000000000000000000073ffffffffffffffffffffffffffffffffffffffff1663dd62ed3e33306040518363ffffffff1660e01b81526004016106d5929190612ed8565b602060405180830381865afa1580156106f0573d5f5f3e3d5ffd5b505050506040513d601f19601f820116820180604052508101906107149190612f13565b1015610755576040517f08c379a000000000000000000000000000000000000000000000000000000000815260040161074c90612f88565b60405180910390fd5b5f5f90505b600c80549050811015610830573373ffffffffffffffffffffffffffffffffffffffff1660085f600c848154811061079557610794612fa6565b5b905f5260205f20015481526020019081526020015f205f015f9054906101000a900473ffffffffffffffffffffffffffffffffffffffff1673ffffffffffffffffffffffffffffffffffffffff1603610823576040517f08c379a000000000000000000000000000000000000000000000000000000000815260040161081a90613043565b60405180910390fd5b808060010191505061075a565b505f7f000000000000000000000000000000000000000000000000000000000000000073ffffffffffffffffffffffffffffffffffffffff166323b872dd3360015f9054906101000a900473ffffffffffffffffffffffffffffffffffffffff166005546040518463ffffffff1660e01b81526004016108b293929190613061565b6020604051808303815f875af11580156108ce573d5f5f3e3d5ffd5b505050506040513d601f19601f820116820180604052508101906108f291906130aa565b905080610934576040517f08c379a000000000000000000000000000000000000000000000000000000000815260040161092b9061311f565b60405180910390fd5b5f60025f8154809291906109479061316a565b9190505590505f60085f8381526020019081526020015f20905033815f015f6101000a81548173ffffffffffffffffffffffffffffffffffffffff021916908373ffffffffffffffffffffffffffffffffffffffff16021790555084848260010191826109b59291906133dc565b506001816002015f6101000a81548160ff0219169083151502179055504281600301819055508181600401819055508160095f3373ffffffffffffffffffffffffffffffffffffffff1673ffffffffffffffffffffffffffffffffffffffff1681526020019081526020015f2081905550600c82908060018154018082558091505060019003905f5260205f20015f90919091909150553373ffffffffffffffffffffffffffffffffffffffff16827fb942b64496751623fe8e67d13435346a352981ddb97189053829c967cc046df98787604051610a959291906134e3565b60405180910390a35050505050565b60055481565b5f5f9054906101000a900473ffffffffffffffffffffffffffffffffffffffff1673ffffffffffffffffffffffffffffffffffffffff163373ffffffffffffffffffffffffffffffffffffffff1614610b38576040517f08c379a0000000000000000000000000000000000000000000000000000000008152600401610b2f9061354f565b60405180910390fd5b600160085f8381526020019081526020015f206002015f6101000a81548160ff02191690831515021790555050565b5f5f9054906101000a900473ffffffffffffffffffffffffffffffffffffffff1673ffffffffffffffffffffffffffffffffffffffff163373ffffffffffffffffffffffffffffffffffffffff1614610bf5576040517f08c379a0000000000000000000000000000000000000000000000000000000008152600401610bec9061354f565b60405180910390fd5b5f8111610c37576040517f08c379a0000000000000000000000000000000000000000000000000000000008152600401610c2e906135b7565b60405180910390fd5b806006819055507fc6f44473d25b86976ee7357c1339328224e349abc5486edc3007ef658a57608a81604051610c6d91906126f4565b60405180910390a150565b6008602052805f5260405f205f91509050805f015f9054906101000a900473ffffffffffffffffffffffffffffffffffffffff1690806001018054610cbc90613215565b80601f0160208091040260200160405190810160405280929190818152602001828054610ce890613215565b8015610d335780601f10610d0a57610100808354040283529160200191610d33565b820191905f5260205f20905b815481529060010190602001808311610d1657829003601f168201915b505050505090806002015f9054906101000a900460ff16908060030154908060040154905085565b5f5f9054906101000a900473ffffffffffffffffffffffffffffffffffffffff1673ffffffffffffffffffffffffffffffffffffffff163373ffffffffffffffffffffffffffffffffffffffff1614610de9576040517f08c379a0000000000000000000000000000000000000000000000000000000008152600401610de09061354f565b60405180910390fd5b5f600a5f8381526020019081526020015f20905082815f015414610e42576040517f08c379a0000000000000000000000000000000000000000000000000000000008152600401610e399061361f565b60405180910390fd5b806006015f9054906101000a900460ff16610e92576040517f08c379a0000000000000000000000000000000000000000000000000000000008152600401610e8990613687565b60405180910390fd5b5f816006015f6101000a81548160ff02191690831515021790555081837fc3778cf500cb0777abf9fee3248b3ae357f4c269bd9d5e89b1f649b1d8d1f4ca60405160405180910390a3505050565b7f000000000000000000000000000000000000000000000000000000000000000081565b60408282905014610f4a576040517f08c379a0000000000000000000000000000000000000000000000000000000008152600401610f41906136ef565b60405180910390fd5b5f5f8383810190610f5b9190612883565b915091505f60085f8481526020019081526020015f209050806002015f9054906101000a900460ff16610fc3576040517f08c379a0000000000000000000000000000000000000000000000000000000008152600401610fba90613757565b60405180910390fd5b5f600a5f8481526020019081526020015f20905083815f01541461101c576040517f08c379a0000000000000000000000000000000000000000000000000000000008152600401611013906137bf565b60405180910390fd5b806006015f9054906101000a900460ff1661106c576040517f08c379a000000000000000000000000000000000000000000000000000000000815260040161106390613827565b60405180910390fd5b80600501544210156110b3576040517f08c379a00000000000000000000000000000000000000000000000000000000081526004016110aa9061388f565b60405180910390fd5b6110be8484836120a0565b505050505050565b600a602052805f5260405f205f91509050805f0154908060010180546110eb90613215565b80601f016020809104026020016040519081016040528092919081815260200182805461111790613215565b80156111625780601f1061113957610100808354040283529160200191611162565b820191905f5260205f20905b81548152906001019060200180831161114557829003601f168201915b505050505090806002015f9054906101000a900473ffffffffffffffffffffffffffffffffffffffff16908060020160149054906101000a900467ffffffffffffffff1690806003015f9054906101000a900473ffffffffffffffffffffffffffffffffffffffff1690806004015490806005015490806006015f9054906101000a900460ff16908060070154905089565b60075f9054906101000a900473ffffffffffffffffffffffffffffffffffffffff1681565b6009602052805f5260405f205f915090505481565b5f60095f3373ffffffffffffffffffffffffffffffffffffffff1673ffffffffffffffffffffffffffffffffffffffff1681526020019081526020015f205490505f81036112b1576040517f08c379a00000000000000000000000000000000000000000000000000000000081526004016112a8906138f7565b60405180910390fd5b5f600a5f8c81526020019081526020015f20905081815f01541461130a576040517f08c379a00000000000000000000000000000000000000000000000000000000081526004016113019061361f565b60405180910390fd5b898982600101918261131d9291906133dc565b5087816002015f6101000a81548173ffffffffffffffffffffffffffffffffffffffff021916908373ffffffffffffffffffffffffffffffffffffffff160217905550868160020160146101000a81548167ffffffffffffffff021916908367ffffffffffffffff16021790555085816003015f6101000a81548173ffffffffffffffffffffffffffffffffffffffff021916908373ffffffffffffffffffffffffffffffffffffffff16021790555084816004018190555083816005018190555082816006015f6101000a81548160ff0219169083151502179055508a827f4706aadbbadcdb2d905594e1b778a85633b49ce9b2b11cf7939207147f7381c360405160405180910390a35050505050505050505050565b600b5481565b5f60605f600c8054905090505f8103611468575f60405180602001604052805f815250925092505061164e565b5f5f90505b81811015611637575f82826003546114859190613915565b61148f9190613975565b90505f600c82815481106114a6576114a5612fa6565b5b905f5260205f20015490505f60085f8381526020019081526020015f209050806002015f9054906101000a900460ff166114e25750505061162a565b5f8160050190505f818054905090505f810361150257505050505061162a565b5f816004546115119190613975565b90505f5f90505b8281101561161b575f83828461152e9190613915565b6115389190613975565b90505f85828154811061154e5761154d612fa6565b5b905f5260205f20015490505f600a5f8381526020019081526020015f209050806006015f9054906101000a900460ff1661158a5750505061160e565b8060050154421061160a5760019d5088826040516020016115ac9291906139a5565b6040516020818303038152906040529c508b60018b6115cb9190613915565b6115d59190613975565b600381905550856001846115e99190613915565b6115f39190613975565b60048190555050505050505050505050505061164e565b5050505b8080600101915050611518565b505f6004819055505050505050505b808060010191505061146d565b505f60405180602001604052805f81525092509250505b9250929050565b60045481565b5f5f9054906101000a900473ffffffffffffffffffffffffffffffffffffffff1681565b60065481565b6060600c8054806020026020016040519081016040528092919081815260200182805480156116d157602002820191905f5260205f20905b8154815260200190600101908083116116bd575b5050505050905090565b5f5f9054906101000a900473ffffffffffffffffffffffffffffffffffffffff1673ffffffffffffffffffffffffffffffffffffffff163373ffffffffffffffffffffffffffffffffffffffff1614611769576040517f08c379a00000000000000000000000000000000000000000000000000000000081526004016117609061354f565b60405180910390fd5b5f60085f8381526020019081526020015f206002015f6101000a81548160ff02191690831515021790555050565b5f60605f5f5f5f5f5f5f5f600a5f8c81526020019081526020015f209050805f015481600101826002015f9054906101000a900473ffffffffffffffffffffffffffffffffffffffff168360020160149054906101000a900467ffffffffffffffff16846003015f9054906101000a900473ffffffffffffffffffffffffffffffffffffffff1685600401548660050154876006015f9054906101000a900460ff16886007015487805461184a90613215565b80601f016020809104026020016040519081016040528092919081815260200182805461187690613215565b80156118c15780601f10611898576101008083540402835291602001916118c1565b820191905f5260205f20905b8154815290600101906020018083116118a457829003601f168201915b50505050509750995099509950995099509950995099509950509193959799909294969850565b60035481565b5f5f9054906101000a900473ffffffffffffffffffffffffffffffffffffffff1673ffffffffffffffffffffffffffffffffffffffff163373ffffffffffffffffffffffffffffffffffffffff161461197c576040517f08c379a00000000000000000000000000000000000000000000000000000000081526004016119739061354f565b60405180910390fd5b806005819055507fb120d26fad0e7bd128060711a484693f1283b8143bf94bde9df9b13217aa4836816040516119b291906126f4565b60405180910390a150565b606060085f8381526020019081526020015f20600501805480602002602001604051908101604052809291908181526020018280548015611a1b57602002820191905f5260205f20905b815481526020019060010190808311611a07575b50505050509050919050565b60025481565b600c8181548110611a3c575f80fd5b905f5260205f20015f915090505481565b5f60095f3373ffffffffffffffffffffffffffffffffffffffff1673ffffffffffffffffffffffffffffffffffffffff1681526020019081526020015f205490505f8103611ad0576040517f08c379a0000000000000000000000000000000000000000000000000000000008152600401611ac7906138f7565b60405180910390fd5b5f60085f8381526020019081526020015f209050806002015f9054906101000a900460ff16611b34576040517f08c379a0000000000000000000000000000000000000000000000000000000008152600401611b2b90613757565b60405180910390fd5b5f73ffffffffffffffffffffffffffffffffffffffff168673ffffffffffffffffffffffffffffffffffffffff1603611ba2576040517f08c379a0000000000000000000000000000000000000000000000000000000008152600401611b9990613a16565b60405180910390fd5b5f8311611be4576040517f08c379a0000000000000000000000000000000000000000000000000000000008152600401611bdb90613a7e565b60405180910390fd5b5f600b5f815480929190611bf79061316a565b9190505590505f600a5f8381526020019081526020015f20905083815f01819055508989826001019182611c2c9291906133dc565b5087816002015f6101000a81548173ffffffffffffffffffffffffffffffffffffffff021916908373ffffffffffffffffffffffffffffffffffffffff160217905550868160020160146101000a81548167ffffffffffffffff021916908367ffffffffffffffff16021790555085816003015f6101000a81548173ffffffffffffffffffffffffffffffffffffffff021916908373ffffffffffffffffffffffffffffffffffffffff16021790555084816004018190555060065442611cf39190613915565b81600501819055506001816006015f6101000a81548160ff0219169083151502179055508181600701819055508260050182908060018154018082558091505060019003905f5260205f20015f909190919091505581847facf82f4593c61662fda8b6b2f60f53ab7d2d74a1f0f76474dbf922d047c8d35d8c8c8c8a8760050154604051611d85959493929190613a9c565b60405180910390a350505050505050505050565b60015f9054906101000a900473ffffffffffffffffffffffffffffffffffffffff1681565b5f5f9054906101000a900473ffffffffffffffffffffffffffffffffffffffff1673ffffffffffffffffffffffffffffffffffffffff163373ffffffffffffffffffffffffffffffffffffffff1614611e4c576040517f08c379a0000000000000000000000000000000000000000000000000000000008152600401611e439061354f565b60405180910390fd5b5f73ffffffffffffffffffffffffffffffffffffffff168173ffffffffffffffffffffffffffffffffffffffff1603611eba576040517f08c379a0000000000000000000000000000000000000000000000000000000008152600401611eb190613b32565b60405180910390fd5b8073ffffffffffffffffffffffffffffffffffffffff165f5f9054906101000a900473ffffffffffffffffffffffffffffffffffffffff1673ffffffffffffffffffffffffffffffffffffffff167f8be0079c531659141344cd1fd0a4f28419497f9722a3daafe3b4186f6b6457e060405160405180910390a3805f5f6101000a81548173ffffffffffffffffffffffffffffffffffffffff021916908373ffffffffffffffffffffffffffffffffffffffff16021790555050565b5f60095f3373ffffffffffffffffffffffffffffffffffffffff1673ffffffffffffffffffffffffffffffffffffffff1681526020019081526020015f205490505f8103611ff9576040517f08c379a0000000000000000000000000000000000000000000000000000000008152600401611ff0906138f7565b60405180910390fd5b5f600a5f8481526020019081526020015f20905081815f015414612052576040517f08c379a00000000000000000000000000000000000000000000000000000000081526004016120499061361f565b60405180910390fd5b5f816006015f6101000a81548160ff02191690831515021790555082827fc3778cf500cb0777abf9fee3248b3ae357f4c269bd9d5e89b1f649b1d8d1f4ca60405160405180910390a3505050565b5f60085f8581526020019081526020015f205f015f9054906101000a900473ffffffffffffffffffffffffffffffffffffffff1690505f7f000000000000000000000000000000000000000000000000000000000000000073ffffffffffffffffffffffffffffffffffffffff1663dd62ed3e83306040518363ffffffff1660e01b8152600401612132929190612ed8565b602060405180830381865afa15801561214d573d5f5f3e3d5ffd5b505050506040513d601f19601f820116820180604052508101906121719190612f13565b9050826004015481101561223857826002015f9054906101000a900473ffffffffffffffffffffffffffffffffffffffff1673ffffffffffffffffffffffffffffffffffffffff1684867f45a4b771136ab0a47e31846ee674a690791c466fa56dc5d02b47d34b1e3bbed45f8760020160149054906101000a900467ffffffffffffffff16886003015f9054906101000a900473ffffffffffffffffffffffffffffffffffffffff1660405161222993929190613b89565b60405180910390a45050612623565b5f8360020160149054906101000a900467ffffffffffffffff1667ffffffffffffffff160361246a575f7f000000000000000000000000000000000000000000000000000000000000000073ffffffffffffffffffffffffffffffffffffffff166323b872dd84866002015f9054906101000a900473ffffffffffffffffffffffffffffffffffffffff1687600401546040518463ffffffff1660e01b81526004016122e693929190613061565b6020604051808303815f875af1158015612302573d5f5f3e3d5ffd5b505050506040513d601f19601f8201168201806040525081019061232691906130aa565b905080156123aa57836002015f9054906101000a900473ffffffffffffffffffffffffffffffffffffffff1673ffffffffffffffffffffffffffffffffffffffff1685877f2228f8cbb17a09a722723c4196bb32d5506e02b64960ae2f03f04c43f63d5cac876004015460405161239d91906126f4565b60405180910390a4612464565b836002015f9054906101000a900473ffffffffffffffffffffffffffffffffffffffff1673ffffffffffffffffffffffffffffffffffffffff1685877f45a4b771136ab0a47e31846ee674a690791c466fa56dc5d02b47d34b1e3bbed45f8860020160149054906101000a900467ffffffffffffffff16896003015f9054906101000a900473ffffffffffffffffffffffffffffffffffffffff1660405161245493929190613b89565b60405180910390a4505050612623565b50612606565b826002015f9054906101000a900473ffffffffffffffffffffffffffffffffffffffff1673ffffffffffffffffffffffffffffffffffffffff1684867f45a4b771136ab0a47e31846ee674a690791c466fa56dc5d02b47d34b1e3bbed486600401548760020160149054906101000a900467ffffffffffffffff16886003015f9054906101000a900473ffffffffffffffffffffffffffffffffffffffff1660405161251893929190613bbe565b60405180910390a45f7f000000000000000000000000000000000000000000000000000000000000000073ffffffffffffffffffffffffffffffffffffffff166323b872dd843087600401546040518463ffffffff1660e01b815260040161258293929190613061565b6020604051808303815f875af115801561259e573d5f5f3e3d5ffd5b505050506040513d601f19601f820116820180604052508101906125c291906130aa565b905080612604576040517f08c379a00000000000000000000000000000000000000000000000000000000081526004016125fb90613c3d565b60405180910390fd5b505b60065483600501546126189190613915565b836005018190555050505b505050565b5f5ffd5b5f5ffd5b5f5ffd5b5f5ffd5b5f5ffd5b5f5f83601f84011261265157612650612630565b5b8235905067ffffffffffffffff81111561266e5761266d612634565b5b60208301915083600182028301111561268a57612689612638565b5b9250929050565b5f5f602083850312156126a7576126a6612628565b5b5f83013567ffffffffffffffff8111156126c4576126c361262c565b5b6126d08582860161263c565b92509250509250929050565b5f819050919050565b6126ee816126dc565b82525050565b5f6020820190506127075f8301846126e5565b92915050565b612716816126dc565b8114612720575f5ffd5b50565b5f813590506127318161270d565b92915050565b5f6020828403121561274c5761274b612628565b5b5f61275984828501612723565b91505092915050565b5f73ffffffffffffffffffffffffffffffffffffffff82169050919050565b5f61278b82612762565b9050919050565b61279b81612781565b82525050565b5f81519050919050565b5f82825260208201905092915050565b8281835e5f83830152505050565b5f601f19601f8301169050919050565b5f6127e3826127a1565b6127ed81856127ab565b93506127fd8185602086016127bb565b612806816127c9565b840191505092915050565b5f8115159050919050565b61282581612811565b82525050565b5f60a08201905061283e5f830188612792565b818103602083015261285081876127d9565b905061285f604083018661281c565b61286c60608301856126e5565b61287960808301846126e5565b9695505050505050565b5f5f6040838503121561289957612898612628565b5b5f6128a685828601612723565b92505060206128b785828601612723565b9150509250929050565b5f819050919050565b5f6128e46128df6128da84612762565b6128c1565b612762565b9050919050565b5f6128f5826128ca565b9050919050565b5f612906826128eb565b9050919050565b612916816128fc565b82525050565b5f60208201905061292f5f83018461290d565b92915050565b5f5f83601f84011261294a57612949612630565b5b8235905067ffffffffffffffff81111561296757612966612634565b5b60208301915083600182028301111561298357612982612638565b5b9250929050565b5f5f602083850312156129a05761299f612628565b5b5f83013567ffffffffffffffff8111156129bd576129bc61262c565b5b6129c985828601612935565b92509250509250929050565b5f67ffffffffffffffff82169050919050565b6129f1816129d5565b82525050565b5f61012082019050612a0b5f83018c6126e5565b8181036020830152612a1d818b6127d9565b9050612a2c604083018a612792565b612a3960608301896129e8565b612a466080830188612792565b612a5360a08301876126e5565b612a6060c08301866126e5565b612a6d60e083018561281c565b612a7b6101008301846126e5565b9a9950505050505050505050565b5f602082019050612a9c5f830184612792565b92915050565b612aab81612781565b8114612ab5575f5ffd5b50565b5f81359050612ac681612aa2565b92915050565b5f60208284031215612ae157612ae0612628565b5b5f612aee84828501612ab8565b91505092915050565b612b00816129d5565b8114612b0a575f5ffd5b50565b5f81359050612b1b81612af7565b92915050565b612b2a81612811565b8114612b34575f5ffd5b50565b5f81359050612b4581612b21565b92915050565b5f5f5f5f5f5f5f5f5f6101008a8c031215612b6957612b68612628565b5b5f612b768c828d01612723565b99505060208a013567ffffffffffffffff811115612b9757612b9661262c565b5b612ba38c828d0161263c565b98509850506040612bb68c828d01612ab8565b9650506060612bc78c828d01612b0d565b9550506080612bd88c828d01612ab8565b94505060a0612be98c828d01612723565b93505060c0612bfa8c828d01612723565b92505060e0612c0b8c828d01612b37565b9150509295985092959850929598565b5f81519050919050565b5f82825260208201905092915050565b5f612c3f82612c1b565b612c498185612c25565b9350612c598185602086016127bb565b612c62816127c9565b840191505092915050565b5f604082019050612c805f83018561281c565b8181036020830152612c928184612c35565b90509392505050565b5f81519050919050565b5f82825260208201905092915050565b5f819050602082019050919050565b612ccd816126dc565b82525050565b5f612cde8383612cc4565b60208301905092915050565b5f602082019050919050565b5f612d0082612c9b565b612d0a8185612ca5565b9350612d1583612cb5565b805f5b83811015612d45578151612d2c8882612cd3565b9750612d3783612cea565b925050600181019050612d18565b5085935050505092915050565b5f6020820190508181035f830152612d6a8184612cf6565b905092915050565b5f5f5f5f5f5f60a08789031215612d8c57612d8b612628565b5b5f87013567ffffffffffffffff811115612da957612da861262c565b5b612db589828a0161263c565b96509650506020612dc889828a01612ab8565b9450506040612dd989828a01612b0d565b9350506060612dea89828a01612ab8565b9250506080612dfb89828a01612723565b9150509295509295509295565b7f6e616d65207265717569726564000000000000000000000000000000000000005f82015250565b5f612e3c600d836127ab565b9150612e4782612e08565b602082019050919050565b5f6020820190508181035f830152612e6981612e30565b9050919050565b7f77616c6c657420616c72656164792068617320636f6d70616e790000000000005f82015250565b5f612ea4601a836127ab565b9150612eaf82612e70565b602082019050919050565b5f6020820190508181035f830152612ed181612e98565b9050919050565b5f604082019050612eeb5f830185612792565b612ef86020830184612792565b9392505050565b5f81519050612f0d8161270d565b92915050565b5f60208284031215612f2857612f27612628565b5b5f612f3584828501612eff565b91505092915050565b7f617070726f766520726567697374726174696f6e4665650000000000000000005f82015250565b5f612f726017836127ab565b9150612f7d82612f3e565b602082019050919050565b5f6020820190508181035f830152612f9f81612f66565b9050919050565b7f4e487b71000000000000000000000000000000000000000000000000000000005f52603260045260245ffd5b7f77616c6c657420616c72656164792072656769737465726564206173206f776e5f8201527f6572000000000000000000000000000000000000000000000000000000000000602082015250565b5f61302d6022836127ab565b915061303882612fd3565b604082019050919050565b5f6020820190508181035f83015261305a81613021565b9050919050565b5f6060820190506130745f830186612792565b6130816020830185612792565b61308e60408301846126e5565b949350505050565b5f815190506130a481612b21565b92915050565b5f602082840312156130bf576130be612628565b5b5f6130cc84828501613096565b91505092915050565b7f7472616e7366657246726f6d206661696c6564000000000000000000000000005f82015250565b5f6131096013836127ab565b9150613114826130d5565b602082019050919050565b5f6020820190508181035f830152613136816130fd565b9050919050565b7f4e487b71000000000000000000000000000000000000000000000000000000005f52601160045260245ffd5b5f613174826126dc565b91507fffffffffffffffffffffffffffffffffffffffffffffffffffffffffffffffff82036131a6576131a561313d565b5b600182019050919050565b5f82905092915050565b7f4e487b71000000000000000000000000000000000000000000000000000000005f52604160045260245ffd5b7f4e487b71000000000000000000000000000000000000000000000000000000005f52602260045260245ffd5b5f600282049050600182168061322c57607f821691505b60208210810361323f5761323e6131e8565b5b50919050565b5f819050815f5260205f209050919050565b5f6020601f8301049050919050565b5f82821b905092915050565b5f600883026132a17fffffffffffffffffffffffffffffffffffffffffffffffffffffffffffffffff82613266565b6132ab8683613266565b95508019841693508086168417925050509392505050565b5f6132dd6132d86132d3846126dc565b6128c1565b6126dc565b9050919050565b5f819050919050565b6132f6836132c3565b61330a613302826132e4565b848454613272565b825550505050565b5f5f905090565b613321613312565b61332c8184846132ed565b505050565b5b8181101561334f576133445f82613319565b600181019050613332565b5050565b601f8211156133945761336581613245565b61336e84613257565b8101602085101561337d578190505b61339161338985613257565b830182613331565b50505b505050565b5f82821c905092915050565b5f6133b45f1984600802613399565b1980831691505092915050565b5f6133cc83836133a5565b9150826002028217905092915050565b6133e683836131b1565b67ffffffffffffffff8111156133ff576133fe6131bb565b5b6134098254613215565b613414828285613353565b5f601f831160018114613441575f841561342f578287013590505b61343985826133c1565b8655506134a0565b601f19841661344f86613245565b5f5b8281101561347657848901358255600182019150602085019450602081019050613451565b86831015613493578489013561348f601f8916826133a5565b8355505b6001600288020188555050505b50505050505050565b828183375f83830152505050565b5f6134c283856127ab565b93506134cf8385846134a9565b6134d8836127c9565b840190509392505050565b5f6020820190508181035f8301526134fc8184866134b7565b90509392505050565b7f6e6f74206f776e657200000000000000000000000000000000000000000000005f82015250565b5f6135396009836127ab565b915061354482613505565b602082019050919050565b5f6020820190508181035f8301526135668161352d565b9050919050565b7f696e76616c696420696e74657276616c000000000000000000000000000000005f82015250565b5f6135a16010836127ab565b91506135ac8261356d565b602082019050919050565b5f6020820190508181035f8301526135ce81613595565b9050919050565b7f6d69736d61746368656420636f6d70616e7900000000000000000000000000005f82015250565b5f6136096012836127ab565b9150613614826135d5565b602082019050919050565b5f6020820190508181035f830152613636816135fd565b9050919050565b7f616c726561647920696e616374697665000000000000000000000000000000005f82015250565b5f6136716010836127ab565b915061367c8261363d565b602082019050919050565b5f6020820190508181035f83015261369e81613665565b9050919050565b7f62616420706572666f726d4461746100000000000000000000000000000000005f82015250565b5f6136d9600f836127ab565b91506136e4826136a5565b602082019050919050565b5f6020820190508181035f830152613706816136cd565b9050919050565b7f636f6d70616e7920696e616374697665000000000000000000000000000000005f82015250565b5f6137416010836127ab565b915061374c8261370d565b602082019050919050565b5f6020820190508181035f83015261376e81613735565b9050919050565b7f6d69736d617463686564000000000000000000000000000000000000000000005f82015250565b5f6137a9600a836127ab565b91506137b482613775565b602082019050919050565b5f6020820190508181035f8301526137d68161379d565b9050919050565b7f656d706c6f79656520696e6163746976650000000000000000000000000000005f82015250565b5f6138116011836127ab565b915061381c826137dd565b602082019050919050565b5f6020820190508181035f83015261383e81613805565b9050919050565b7f6e6f7420647565000000000000000000000000000000000000000000000000005f82015250565b5f6138796007836127ab565b915061388482613845565b602082019050919050565b5f6020820190508181035f8301526138a68161386d565b9050919050565b7f6e6f7420636f6d70616e79206f776e65720000000000000000000000000000005f82015250565b5f6138e16011836127ab565b91506138ec826138ad565b602082019050919050565b5f6020820190508181035f83015261390e816138d5565b9050919050565b5f61391f826126dc565b915061392a836126dc565b92508282019050808211156139425761394161313d565b5b92915050565b7f4e487b71000000000000000000000000000000000000000000000000000000005f52601260045260245ffd5b5f61397f826126dc565b915061398a836126dc565b92508261399a57613999613948565b5b828206905092915050565b5f6040820190506139b85f8301856126e5565b6139c560208301846126e5565b9392505050565b7f7a65726f2077616c6c65740000000000000000000000000000000000000000005f82015250565b5f613a00600b836127ab565b9150613a0b826139cc565b602082019050919050565b5f6020820190508181035f830152613a2d816139f4565b9050919050565b7f73616c617279207a65726f0000000000000000000000000000000000000000005f82015250565b5f613a68600b836127ab565b9150613a7382613a34565b602082019050919050565b5f6020820190508181035f830152613a9581613a5c565b9050919050565b5f6080820190508181035f830152613ab58187896134b7565b9050613ac46020830186612792565b613ad160408301856126e5565b613ade60608301846126e5565b9695505050505050565b7f7a65726f206164647200000000000000000000000000000000000000000000005f82015250565b5f613b1c6009836127ab565b9150613b2782613ae8565b602082019050919050565b5f6020820190508181035f830152613b4981613b10565b9050919050565b5f819050919050565b5f613b73613b6e613b6984613b50565b6128c1565b6126dc565b9050919050565b613b8381613b59565b82525050565b5f606082019050613b9c5f830186613b7a565b613ba960208301856129e8565b613bb66040830184612792565b949350505050565b5f606082019050613bd15f8301866126e5565b613bde60208301856129e8565b613beb6040830184612792565b949350505050565b7f7472616e7366657246726f6d20746f20657363726f77206661696c65640000005f82015250565b5f613c27601d836127ab565b9150613c3282613bf3565b602082019050919050565b5f6020820190508181035f830152613c5481613c1b565b905091905056fea2646970667358221220e0abb8cc9d798fa08fb9bbb184550d4145173520ecf8038f56daca05fdbc7df564736f6c634300081e0033","linkReferences":{}},"methodIdentifiers":{"activateCompany(uint256)":"1f2c55b0","addEmployee(string,address,uint64,address,uint256)":"f1fa9cb1","adminDeactivateEmployee(uint256,uint256)":"338f488b","checkUpkeep(bytes)":"6e04ff0d","companies(uint256)":"2813d19d","companyIds(uint256)":"ea8c6bc0","companyOfOwner(address)":"563e44bb","deactivateCompany(uint256)":"ba9b3613","deactivateEmployee(uint256)":"f91575f0","employees(uint256)":"4739326b","feeWallet()":"f25f4b56","getCompanyIds()":"a764acba","getEmployee(uint256)":"bca9a5c5","getEmployeesOfCompany(uint256)":"ce63da55","interval()":"947a36fb","lastCheckedCompanyIndex()":"bd298fb4","lastCheckedEmployeeIndex()":"8265bfbe","nextCompanyId()":"d8d3c829","nextEmployeeId()":"6619451b","owner()":"8da5cb5b","performUpkeep(bytes)":"4585e33b","registerCompany(string)":"00544194","registrationFee()":"14c44e09","setInterval(uint256)":"22a90082","setRegistrationFee(uint256)":"c320c727","tokenTransferor()":"4d9ae404","transferOwnership(address)":"f2fde38b","updateEmployee(uint256,string,address,uint64,address,uint256,uint256,bool)":"5a734cca","usdc()":"3e413bee"},"id":3}